{
  "_format": "hh-sol-artifact-1",
  "contractName": "KanamitTrade",
  "sourceName": "contracts/KanamitTrade.sol",
  "abi": [
    {
      "inputs": [
        {
          "internalType": "address",
          "name": "_kCore",
          "type": "address"
        }
      ],
      "stateMutability": "nonpayable",
      "type": "constructor"
    },
    {
      "anonymous": false,
      "inputs": [
        {
          "indexed": true,
          "internalType": "address",
          "name": "src",
          "type": "address"
        },
        {
          "indexed": true,
          "internalType": "address",
          "name": "guy",
          "type": "address"
        },
        {
          "indexed": false,
          "internalType": "uint256",
          "name": "wad",
          "type": "uint256"
        }
      ],
      "name": "Approval",
      "type": "event"
    },
    {
      "anonymous": false,
      "inputs": [
        {
          "indexed": true,
          "internalType": "address",
          "name": "dst",
          "type": "address"
        },
        {
          "indexed": false,
          "internalType": "uint256",
          "name": "wad",
          "type": "uint256"
        }
      ],
      "name": "Deposit",
      "type": "event"
    },
    {
      "anonymous": false,
      "inputs": [
        {
          "indexed": true,
          "internalType": "address",
          "name": "winner",
          "type": "address"
        },
        {
          "indexed": false,
          "internalType": "uint256",
          "name": "amount",
          "type": "uint256"
        },
        {
          "indexed": false,
          "internalType": "bool",
          "name": "success",
          "type": "bool"
        }
      ],
      "name": "EventAccept",
      "type": "event"
    },
    {
      "anonymous": false,
      "inputs": [
        {
          "indexed": true,
          "internalType": "address",
          "name": "dst",
          "type": "address"
        },
        {
          "indexed": false,
          "internalType": "uint256",
          "name": "wad",
          "type": "uint256"
        }
      ],
      "name": "EventBid",
      "type": "event"
    },
    {
      "anonymous": false,
      "inputs": [
        {
          "indexed": true,
          "internalType": "address",
          "name": "previousOwner",
          "type": "address"
        },
        {
          "indexed": true,
          "internalType": "address",
          "name": "newOwner",
          "type": "address"
        }
      ],
      "name": "OwnershipTransferred",
      "type": "event"
    },
    {
      "anonymous": false,
      "inputs": [
        {
          "indexed": true,
          "internalType": "address",
          "name": "src",
          "type": "address"
        },
        {
          "indexed": true,
          "internalType": "address",
          "name": "dst",
          "type": "address"
        },
        {
          "indexed": false,
          "internalType": "uint256",
          "name": "wad",
          "type": "uint256"
        }
      ],
      "name": "Transfer",
      "type": "event"
    },
    {
      "anonymous": false,
      "inputs": [
        {
          "indexed": true,
          "internalType": "address",
          "name": "src",
          "type": "address"
        },
        {
          "indexed": false,
          "internalType": "uint256",
          "name": "wad",
          "type": "uint256"
        }
      ],
      "name": "Withdrawal",
      "type": "event"
    },
    {
      "stateMutability": "payable",
      "type": "fallback"
    },
    {
      "inputs": [],
      "name": "_IncreaseNextAuctionId",
      "outputs": [
        {
          "internalType": "uint256",
          "name": "",
          "type": "uint256"
        }
      ],
      "stateMutability": "nonpayable",
      "type": "function"
    },
    {
      "inputs": [],
      "name": "_getNextAuctionId",
      "outputs": [
        {
          "internalType": "uint256",
          "name": "",
          "type": "uint256"
        }
      ],
      "stateMutability": "view",
      "type": "function"
    },
    {
      "inputs": [
        {
          "internalType": "string",
          "name": "uri",
          "type": "string"
        },
        {
          "internalType": "uint256",
          "name": "amount",
          "type": "uint256"
        }
      ],
      "name": "accept",
      "outputs": [
        {
          "internalType": "bool",
          "name": "success",
          "type": "bool"
        }
      ],
      "stateMutability": "nonpayable",
      "type": "function"
    },
    {
      "inputs": [
        {
          "internalType": "address",
          "name": "",
          "type": "address"
        },
        {
          "internalType": "address",
          "name": "",
          "type": "address"
        }
      ],
      "name": "allowance",
      "outputs": [
        {
          "internalType": "uint256",
          "name": "",
          "type": "uint256"
        }
      ],
      "stateMutability": "view",
      "type": "function"
    },
    {
      "inputs": [
        {
          "internalType": "address",
          "name": "guy",
          "type": "address"
        },
        {
          "internalType": "uint256",
          "name": "wad",
          "type": "uint256"
        }
      ],
      "name": "approve",
      "outputs": [
        {
          "internalType": "bool",
          "name": "",
          "type": "bool"
        }
      ],
      "stateMutability": "nonpayable",
      "type": "function"
    },
    {
      "inputs": [
        {
          "internalType": "address",
          "name": "",
          "type": "address"
        }
      ],
      "name": "balanceOf",
      "outputs": [
        {
          "internalType": "uint256",
          "name": "",
          "type": "uint256"
        }
      ],
      "stateMutability": "view",
      "type": "function"
    },
    {
      "inputs": [
        {
          "internalType": "uint256",
          "name": "reqId",
          "type": "uint256"
        },
        {
          "internalType": "string",
          "name": "uri",
          "type": "string"
        }
      ],
      "name": "bid",
      "outputs": [
        {
          "internalType": "uint256",
          "name": "retReqId",
          "type": "uint256"
        },
        {
          "internalType": "uint256",
          "name": "retAuctionId",
          "type": "uint256"
        },
        {
          "internalType": "uint256",
          "name": "retBidId",
          "type": "uint256"
        }
      ],
      "stateMutability": "payable",
      "type": "function"
    },
    {
      "inputs": [],
      "name": "coreAddress",
      "outputs": [
        {
          "internalType": "address",
          "name": "",
          "type": "address"
        }
      ],
      "stateMutability": "view",
      "type": "function"
    },
    {
      "inputs": [
        {
          "internalType": "address",
          "name": "_owner",
          "type": "address"
        },
        {
          "internalType": "string",
          "name": "_uri",
          "type": "string"
        }
      ],
      "name": "coreCreateAsset",
      "outputs": [
        {
          "internalType": "uint256",
          "name": "",
          "type": "uint256"
        }
      ],
      "stateMutability": "nonpayable",
      "type": "function"
    },
    {
      "inputs": [
        {
          "internalType": "uint256",
          "name": "_id",
          "type": "uint256"
        }
      ],
      "name": "coreGetAssetById",
      "outputs": [
        {
          "internalType": "uint256",
          "name": "assetHash",
          "type": "uint256"
        }
      ],
      "stateMutability": "view",
      "type": "function"
    },
    {
      "inputs": [
        {
          "internalType": "string",
          "name": "uri",
          "type": "string"
        }
      ],
      "name": "coreGetAssetId",
      "outputs": [
        {
          "internalType": "uint256",
          "name": "",
          "type": "uint256"
        }
      ],
      "stateMutability": "view",
      "type": "function"
    },
    {
      "inputs": [
        {
          "internalType": "string",
          "name": "uri",
          "type": "string"
        }
      ],
      "name": "coreGetUriOwner",
      "outputs": [
        {
          "internalType": "address",
          "name": "addressOwner",
          "type": "address"
        }
      ],
      "stateMutability": "view",
      "type": "function"
    },
    {
      "inputs": [],
      "name": "coreTotalSupply",
      "outputs": [
        {
          "internalType": "uint256",
          "name": "",
          "type": "uint256"
        }
      ],
      "stateMutability": "view",
      "type": "function"
    },
    {
      "inputs": [
        {
          "internalType": "address",
          "name": "newOwner",
          "type": "address"
        }
      ],
      "name": "coreTransferOwnership",
      "outputs": [],
      "stateMutability": "nonpayable",
      "type": "function"
    },
    {
      "inputs": [],
      "name": "decimals",
      "outputs": [
        {
          "internalType": "uint8",
          "name": "",
          "type": "uint8"
        }
      ],
      "stateMutability": "view",
      "type": "function"
    },
    {
      "inputs": [],
      "name": "deposit",
      "outputs": [],
      "stateMutability": "payable",
      "type": "function"
    },
    {
      "inputs": [
        {
          "internalType": "string",
          "name": "uri",
          "type": "string"
        }
      ],
      "name": "getAsset",
      "outputs": [
        {
          "internalType": "bool",
          "name": "found",
          "type": "bool"
        },
        {
          "internalType": "uint256",
          "name": "assetId",
          "type": "uint256"
        },
        {
          "internalType": "address",
          "name": "addrOwner",
          "type": "address"
        }
      ],
      "stateMutability": "view",
      "type": "function"
    },
    {
      "inputs": [
        {
          "internalType": "string",
          "name": "uri",
          "type": "string"
        }
      ],
      "name": "getAuctionStatus",
      "outputs": [
        {
          "internalType": "uint256",
          "name": "auctionId",
          "type": "uint256"
        },
        {
          "internalType": "uint256",
          "name": "status",
          "type": "uint256"
        }
      ],
      "stateMutability": "view",
      "type": "function"
    },
    {
      "inputs": [
        {
          "internalType": "string",
          "name": "uri",
          "type": "string"
        },
        {
          "internalType": "uint256",
          "name": "inputAuction",
          "type": "uint256"
        }
      ],
      "name": "getBids",
      "outputs": [
        {
          "internalType": "uint256",
          "name": "auctionId",
          "type": "uint256"
        },
        {
          "internalType": "uint256",
          "name": "totalBids",
          "type": "uint256"
        },
        {
          "internalType": "uint256[]",
          "name": "bidIds",
          "type": "uint256[]"
        },
        {
          "internalType": "uint256[]",
          "name": "reqIds",
          "type": "uint256[]"
        },
        {
          "internalType": "address[]",
          "name": "addressBidders",
          "type": "address[]"
        },
        {
          "internalType": "uint256[]",
          "name": "amounts",
          "type": "uint256[]"
        },
        {
          "internalType": "bool[]",
          "name": "cancels",
          "type": "bool[]"
        }
      ],
      "stateMutability": "view",
      "type": "function"
    },
    {
      "inputs": [
        {
          "internalType": "string",
          "name": "uri",
          "type": "string"
        }
      ],
      "name": "getUriOwner",
      "outputs": [
        {
          "internalType": "address",
          "name": "",
          "type": "address"
        }
      ],
      "stateMutability": "view",
      "type": "function"
    },
    {
      "inputs": [],
      "name": "name",
      "outputs": [
        {
          "internalType": "string",
          "name": "",
          "type": "string"
        }
      ],
      "stateMutability": "view",
      "type": "function"
    },
    {
      "inputs": [],
      "name": "owner",
      "outputs": [
        {
          "internalType": "address",
          "name": "",
          "type": "address"
        }
      ],
      "stateMutability": "view",
      "type": "function"
    },
    {
      "inputs": [],
      "name": "renounceOwnership",
      "outputs": [],
      "stateMutability": "nonpayable",
      "type": "function"
    },
    {
      "inputs": [
        {
          "internalType": "address",
          "name": "_kCore",
          "type": "address"
        }
      ],
      "name": "setCoreAddress",
      "outputs": [],
      "stateMutability": "nonpayable",
      "type": "function"
    },
    {
      "inputs": [],
      "name": "symbol",
      "outputs": [
        {
          "internalType": "string",
          "name": "",
          "type": "string"
        }
      ],
      "stateMutability": "view",
      "type": "function"
    },
    {
      "inputs": [],
      "name": "totalSupply",
      "outputs": [
        {
          "internalType": "uint256",
          "name": "",
          "type": "uint256"
        }
      ],
      "stateMutability": "view",
      "type": "function"
    },
    {
      "inputs": [
        {
          "internalType": "address",
          "name": "dst",
          "type": "address"
        },
        {
          "internalType": "uint256",
          "name": "wad",
          "type": "uint256"
        }
      ],
      "name": "transfer",
      "outputs": [
        {
          "internalType": "bool",
          "name": "",
          "type": "bool"
        }
      ],
      "stateMutability": "nonpayable",
      "type": "function"
    },
    {
      "inputs": [
        {
          "internalType": "address",
          "name": "src",
          "type": "address"
        },
        {
          "internalType": "address",
          "name": "dst",
          "type": "address"
        },
        {
          "internalType": "uint256",
          "name": "wad",
          "type": "uint256"
        }
      ],
      "name": "transferFrom",
      "outputs": [
        {
          "internalType": "bool",
          "name": "",
          "type": "bool"
        }
      ],
      "stateMutability": "nonpayable",
      "type": "function"
    },
    {
      "inputs": [
        {
          "internalType": "address",
          "name": "newOwner",
          "type": "address"
        }
      ],
      "name": "transferOwnership",
      "outputs": [],
      "stateMutability": "nonpayable",
      "type": "function"
    },
    {
      "inputs": [
        {
          "internalType": "uint256",
          "name": "wad",
          "type": "uint256"
        }
      ],
      "name": "withdraw",
      "outputs": [],
      "stateMutability": "nonpayable",
      "type": "function"
    },
    {
      "stateMutability": "payable",
      "type": "receive"
    }
  ],
  "bytecode": "0x60806040526040518060400160405280601681526020017f4b616e616d697420547261646520636f6e747261637400000000000000000000815250600290805190602001906200005192919062000208565b506040518060400160405280600c81526020017f4b616e616d697454726164650000000000000000000000000000000000000000815250600390805190602001906200009f92919062000208565b506012600460006101000a81548160ff021916908360ff160217905550348015620000c957600080fd5b506040516200453b3803806200453b83398181016040526020811015620000ef57600080fd5b81019080805190602001909291905050506000620001126200020060201b60201c565b9050806000806101000a81548173ffffffffffffffffffffffffffffffffffffffff021916908373ffffffffffffffffffffffffffffffffffffffff1602179055508073ffffffffffffffffffffffffffffffffffffffff16600073ffffffffffffffffffffffffffffffffffffffff167f8be0079c531659141344cd1fd0a4f28419497f9722a3daafe3b4186f6b6457e060405160405180910390a35080600160006101000a81548173ffffffffffffffffffffffffffffffffffffffff021916908373ffffffffffffffffffffffffffffffffffffffff160217905550600160058190555050620002ae565b600033905090565b828054600181600116156101000203166002900490600052602060002090601f016020900481019282601f106200024b57805160ff19168380011785556200027c565b828001600101855582156200027c579182015b828111156200027b5782518255916020019190600101906200025e565b5b5090506200028b91906200028f565b5090565b5b80821115620002aa57600081600090555060010162000290565b5090565b61427d80620002be6000396000f3fe6080604052600436106101d15760003560e01c80636815ae4a116100f757806395d89b4111610095578063d0e30db011610064578063d0e30db01461111b578063dd62ed3e14611125578063ee33382c146111aa578063f2fde38b146111d5576101e0565b806395d89b4114610eed578063a9059cbb14610f7d578063b3d74f9314610fee578063cd5286d014611019576101e0565b806379435c3f116100d157806379435c3f14610d2457806384b04d7f14610d735780638da5cb5b14610e5b57806391aad23914610e9c576101e0565b80636815ae4a14610c7d57806370a0823114610ca8578063715018a614610d0d576101e0565b80631c0ad6461161016f5780632e1a7d4d1161013e5780632e1a7d4d146108c3578063313ce567146108fe57806345b1d5b01461092c5780634a63c58614610b81576101e0565b80631c0ad6461461060d578063200c69871461064e57806323b872dd146107405780632668a6c3146107d1576101e0565b80630fc55fd1116101ab5780630fc55fd11461033c578063111b99931461042357806318160ddd146104ff5780631beff3111461052a576101e0565b806301e16efc146101ea57806306fdde031461023b578063095ea7b3146102cb576101e0565b366101e0576101de611226565b005b6101e8611226565b005b3480156101f657600080fd5b506102396004803603602081101561020d57600080fd5b81019080803573ffffffffffffffffffffffffffffffffffffffff1690602001909291905050506112c3565b005b34801561024757600080fd5b50610250611431565b6040518080602001828103825283818151815260200191508051906020019080838360005b83811015610290578082015181840152602081019050610275565b50505050905090810190601f1680156102bd5780820380516001836020036101000a031916815260200191505b509250505060405180910390f35b3480156102d757600080fd5b50610324600480360360408110156102ee57600080fd5b81019080803573ffffffffffffffffffffffffffffffffffffffff169060200190929190803590602001909291905050506114cf565b60405180821515815260200191505060405180910390f35b6103ff6004803603604081101561035257600080fd5b81019080803590602001909291908035906020019064010000000081111561037957600080fd5b82018360208201111561038b57600080fd5b803590602001918460018302840111640100000000831117156103ad57600080fd5b91908080601f016020809104026020016040519081016040528093929190818152602001838380828437600081840152601f19601f8201169050808301925050505050505091929192905050506115c1565b60405180848152602001838152602001828152602001935050505060405180910390f35b34801561042f57600080fd5b506104e96004803603602081101561044657600080fd5b810190808035906020019064010000000081111561046357600080fd5b82018360208201111561047557600080fd5b8035906020019184600183028401116401000000008311171561049757600080fd5b91908080601f016020809104026020016040519081016040528093929190818152602001838380828437600081840152601f19601f820116905080830192505050505050509192919290505050611d0a565b6040518082815260200191505060405180910390f35b34801561050b57600080fd5b50610514611e26565b6040518082815260200191505060405180910390f35b34801561053657600080fd5b506105f06004803603602081101561054d57600080fd5b810190808035906020019064010000000081111561056a57600080fd5b82018360208201111561057c57600080fd5b8035906020019184600183028401116401000000008311171561059e57600080fd5b91908080601f016020809104026020016040519081016040528093929190818152602001838380828437600081840152601f19601f820116905080830192505050505050509192919290505050611e2e565b604051808381526020018281526020019250505060405180910390f35b34801561061957600080fd5b50610622611eed565b604051808273ffffffffffffffffffffffffffffffffffffffff16815260200191505060405180910390f35b34801561065a57600080fd5b506107146004803603602081101561067157600080fd5b810190808035906020019064010000000081111561068e57600080fd5b8201836020820111156106a057600080fd5b803590602001918460018302840111640100000000831117156106c257600080fd5b91908080601f016020809104026020016040519081016040528093929190818152602001838380828437600081840152601f19601f820116905080830192505050505050509192919290505050611f17565b604051808273ffffffffffffffffffffffffffffffffffffffff16815260200191505060405180910390f35b34801561074c57600080fd5b506107b96004803603606081101561076357600080fd5b81019080803573ffffffffffffffffffffffffffffffffffffffff169060200190929190803573ffffffffffffffffffffffffffffffffffffffff16906020019092919080359060200190929190505050611fcd565b60405180821515815260200191505060405180910390f35b3480156107dd57600080fd5b50610897600480360360208110156107f457600080fd5b810190808035906020019064010000000081111561081157600080fd5b82018360208201111561082357600080fd5b8035906020019184600183028401116401000000008311171561084557600080fd5b91908080601f016020809104026020016040519081016040528093929190818152602001838380828437600081840152601f19601f820116905080830192505050505050509192919290505050612316565b604051808273ffffffffffffffffffffffffffffffffffffffff16815260200191505060405180910390f35b3480156108cf57600080fd5b506108fc600480360360208110156108e657600080fd5b8101908080359060200190929190505050612432565b005b34801561090a57600080fd5b50610913612563565b604051808260ff16815260200191505060405180910390f35b34801561093857600080fd5b506109fc6004803603604081101561094f57600080fd5b810190808035906020019064010000000081111561096c57600080fd5b82018360208201111561097e57600080fd5b803590602001918460018302840111640100000000831117156109a057600080fd5b91908080601f016020809104026020016040519081016040528093929190818152602001838380828437600081840152601f19601f82011690508083019250505050505050919291929080359060200190929190505050612576565b60405180888152602001878152602001806020018060200180602001806020018060200186810386528b818151815260200191508051906020019060200280838360005b83811015610a5b578082015181840152602081019050610a40565b5050505090500186810385528a818151815260200191508051906020019060200280838360005b83811015610a9d578082015181840152602081019050610a82565b50505050905001868103845289818151815260200191508051906020019060200280838360005b83811015610adf578082015181840152602081019050610ac4565b50505050905001868103835288818151815260200191508051906020019060200280838360005b83811015610b21578082015181840152602081019050610b06565b50505050905001868103825287818151815260200191508051906020019060200280838360005b83811015610b63578082015181840152602081019050610b48565b505050509050019c5050505050505050505050505060405180910390f35b348015610b8d57600080fd5b50610c6760048036036040811015610ba457600080fd5b81019080803573ffffffffffffffffffffffffffffffffffffffff16906020019092919080359060200190640100000000811115610be157600080fd5b820183602082011115610bf357600080fd5b80359060200191846001830284011164010000000083111715610c1557600080fd5b91908080601f016020809104026020016040519081016040528093929190818152602001838380828437600081840152601f19601f8201169050808301925050505050505091929192905050506129df565b6040518082815260200191505060405180910390f35b348015610c8957600080fd5b50610c92612d85565b6040518082815260200191505060405180910390f35b348015610cb457600080fd5b50610cf760048036036020811015610ccb57600080fd5b81019080803573ffffffffffffffffffffffffffffffffffffffff169060200190929190505050612d9d565b6040518082815260200191505060405180910390f35b348015610d1957600080fd5b50610d22612db5565b005b348015610d3057600080fd5b50610d5d60048036036020811015610d4757600080fd5b8101908080359060200190929190505050612f3b565b6040518082815260200191505060405180910390f35b348015610d7f57600080fd5b50610e4360048036036040811015610d9657600080fd5b8101908080359060200190640100000000811115610db357600080fd5b820183602082011115610dc557600080fd5b80359060200191846001830284011164010000000083111715610de757600080fd5b91908080601f016020809104026020016040519081016040528093929190818152602001838380828437600081840152601f19601f82011690508083019250505050505050919291929080359060200190929190505050612ff2565b60405180821515815260200191505060405180910390f35b348015610e6757600080fd5b50610e7061370f565b604051808273ffffffffffffffffffffffffffffffffffffffff16815260200191505060405180910390f35b348015610ea857600080fd5b50610eeb60048036036020811015610ebf57600080fd5b81019080803573ffffffffffffffffffffffffffffffffffffffff169060200190929190505050613738565b005b348015610ef957600080fd5b50610f026138e7565b6040518080602001828103825283818151815260200191508051906020019080838360005b83811015610f42578082015181840152602081019050610f27565b50505050905090810190601f168015610f6f5780820380516001836020036101000a031916815260200191505b509250505060405180910390f35b348015610f8957600080fd5b50610fd660048036036040811015610fa057600080fd5b81019080803573ffffffffffffffffffffffffffffffffffffffff16906020019092919080359060200190929190505050613985565b60405180821515815260200191505060405180910390f35b348015610ffa57600080fd5b5061100361399a565b6040518082815260200191505060405180910390f35b34801561102557600080fd5b506110df6004803603602081101561103c57600080fd5b810190808035906020019064010000000081111561105957600080fd5b82018360208201111561106b57600080fd5b8035906020019184600183028401116401000000008311171561108d57600080fd5b91908080601f016020809104026020016040519081016040528093929190818152602001838380828437600081840152601f19601f820116905080830192505050505050509192919290505050613a44565b6040518084151581526020018381526020018273ffffffffffffffffffffffffffffffffffffffff168152602001935050505060405180910390f35b611123611226565b005b34801561113157600080fd5b506111946004803603604081101561114857600080fd5b81019080803573ffffffffffffffffffffffffffffffffffffffff169060200190929190803573ffffffffffffffffffffffffffffffffffffffff169060200190929190505050613c60565b6040518082815260200191505060405180910390f35b3480156111b657600080fd5b506111bf613c85565b6040518082815260200191505060405180910390f35b3480156111e157600080fd5b50611224600480360360208110156111f857600080fd5b81019080803573ffffffffffffffffffffffffffffffffffffffff169060200190929190505050613c8f565b005b34600960003373ffffffffffffffffffffffffffffffffffffffff1673ffffffffffffffffffffffffffffffffffffffff168152602001908152602001600020600082825401925050819055503373ffffffffffffffffffffffffffffffffffffffff167fe1fffcc4923d04b559f4d29a8bfc6cda04eb5b0d3c460751c2402c5c5cc9109c346040518082815260200191505060405180910390a2565b6112cb613e9a565b73ffffffffffffffffffffffffffffffffffffffff1660008054906101000a900473ffffffffffffffffffffffffffffffffffffffff1673ffffffffffffffffffffffffffffffffffffffff161461138b576040517f08c379a00000000000000000000000000000000000000000000000000000000081526004018080602001828103825260208152602001807f4f776e61626c653a2063616c6c6572206973206e6f7420746865206f776e657281525060200191505060405180910390fd5b600160009054906101000a900473ffffffffffffffffffffffffffffffffffffffff1673ffffffffffffffffffffffffffffffffffffffff1663f2fde38b826040518263ffffffff1660e01b8152600401808273ffffffffffffffffffffffffffffffffffffffff168152602001915050600060405180830381600087803b15801561141657600080fd5b505af115801561142a573d6000803e3d6000fd5b5050505050565b60028054600181600116156101000203166002900480601f0160208091040260200160405190810160405280929190818152602001828054600181600116156101000203166002900480156114c75780601f1061149c576101008083540402835291602001916114c7565b820191906000526020600020905b8154815290600101906020018083116114aa57829003601f168201915b505050505081565b600081600a60003373ffffffffffffffffffffffffffffffffffffffff1673ffffffffffffffffffffffffffffffffffffffff16815260200190815260200160002060008573ffffffffffffffffffffffffffffffffffffffff1673ffffffffffffffffffffffffffffffffffffffff168152602001908152602001600020819055508273ffffffffffffffffffffffffffffffffffffffff163373ffffffffffffffffffffffffffffffffffffffff167f8c5be1e5ebec7d5bd14f71427d1e84f3dd0314c0f7b2291e5b200ac8c7c3b925846040518082815260200191505060405180910390a36001905092915050565b60008060008073ffffffffffffffffffffffffffffffffffffffff163373ffffffffffffffffffffffffffffffffffffffff161415611668576040517f08c379a00000000000000000000000000000000000000000000000000000000081526004018080602001828103825260128152602001807f626164206269646465722061646472657373000000000000000000000000000081525060200191505060405180910390fd5b6000846040516020018082805190602001908083835b602083106116a1578051825260208201915060208101905060208303925061167e565b6001836020036101000a0380198251168184511680821785525050505050509050019150506040516020818303038152906040528051906020012060001c90506008600082815260200190815260200160002060009054906101000a900473ffffffffffffffffffffffffffffffffffffffff1673ffffffffffffffffffffffffffffffffffffffff163373ffffffffffffffffffffffffffffffffffffffff1614156117b6576040517f08c379a00000000000000000000000000000000000000000000000000000000081526004018080602001828103825260148152602001807f7572694f776e65722063616e206e6f742062696400000000000000000000000081525060200191505060405180910390fd5b6000600160009054906101000a900473ffffffffffffffffffffffffffffffffffffffff1673ffffffffffffffffffffffffffffffffffffffff16630fed73e2876040518263ffffffff1660e01b81526004018080602001828103825283818151815260200191508051906020019080838360005b8381101561184657808201518184015260208101905061182b565b50505050905090810190601f1680156118735780820380516001836020036101000a031916815260200191505b509250505060206040518083038186803b15801561189057600080fd5b505afa1580156118a4573d6000803e3d6000fd5b505050506040513d60208110156118ba57600080fd5b810190808051906020019092919050505090506000811415611944576040517f08c379a000000000000000000000000000000000000000000000000000000000815260040180806020018281038252601e8152602001807f757269206d757374206265206d696e742c206669727374206f6620616c6c000081525060200191505060405180910390fd5b600034905060008061195589611e2e565b9150915081600014806119685750806001145b1561199057611975612d85565b91508160076000878152602001908152602001600020819055505b6000600660008481526020019081526020016000206003018054905090506000811115611a8b5760006006600085815260200190815260200160002060030160018303815481106119dd57fe5b90600052602060002001549050600660008881526020019081526020016000206004016000828152602001908152602001600020600301548511611a89576040517f08c379a000000000000000000000000000000000000000000000000000000000815260040180806020018281038252601f8152602001807f6d757374206c61726765207468616e206c6173742062696420616d6f756e740081525060200191505060405180910390fd5b505b826006600085815260200190815260200160002060000181905550856006600085815260200190815260200160002060010181905550600660008481526020019081526020016000206003018b9080600181540180825580915050600190039060005260206000200160009091909190915055600060016006600086815260200190815260200160002060030180549050039050806006600086815260200190815260200160002060040160008e8152602001908152602001600020600001819055508b6006600086815260200190815260200160002060040160008e815260200190815260200160002060010181905550336006600086815260200190815260200160002060040160008e815260200190815260200160002060020160006101000a81548173ffffffffffffffffffffffffffffffffffffffff021916908373ffffffffffffffffffffffffffffffffffffffff160217905550846006600086815260200190815260200160002060040160008e81526020019081526020016000206003018190555060006006600086815260200190815260200160002060040160008e815260200190815260200160002060040160006101000a81548160ff02191690831515021790555034600960003073ffffffffffffffffffffffffffffffffffffffff1673ffffffffffffffffffffffffffffffffffffffff168152602001908152602001600020600082825401925050819055503073ffffffffffffffffffffffffffffffffffffffff167ff976e20adafa8e24fbb812476607a63bf451542254778ced7bd6ed3847a49fc2346040518082815260200191505060405180910390a28b9950839850809750505050505050509250925092565b6000600160009054906101000a900473ffffffffffffffffffffffffffffffffffffffff1673ffffffffffffffffffffffffffffffffffffffff16630fed73e2836040518263ffffffff1660e01b81526004018080602001828103825283818151815260200191508051906020019080838360005b83811015611d9a578082015181840152602081019050611d7f565b50505050905090810190601f168015611dc75780820380516001836020036101000a031916815260200191505b509250505060206040518083038186803b158015611de457600080fd5b505afa158015611df8573d6000803e3d6000fd5b505050506040513d6020811015611e0e57600080fd5b81019080805190602001909291905050509050919050565b600047905090565b6000806000836040516020018082805190602001908083835b60208310611e6a5780518252602082019150602081019050602083039250611e47565b6001836020036101000a0380198251168184511680821785525050505050509050019150506040516020818303038152906040528051906020012060001c905060076000828152602001908152602001600020549250600091506000831115611ee757600660008481526020019081526020016000206002015491505b50915091565b6000600160009054906101000a900473ffffffffffffffffffffffffffffffffffffffff16905090565b600080826040516020018082805190602001908083835b60208310611f515780518252602082019150602081019050602083039250611f2e565b6001836020036101000a0380198251168184511680821785525050505050509050019150506040516020818303038152906040528051906020012060001c90506008600082815260200190815260200160002060009054906101000a900473ffffffffffffffffffffffffffffffffffffffff16915050919050565b600081600960008673ffffffffffffffffffffffffffffffffffffffff1673ffffffffffffffffffffffffffffffffffffffff16815260200190815260200160002054101561201b57600080fd5b3373ffffffffffffffffffffffffffffffffffffffff168473ffffffffffffffffffffffffffffffffffffffff16141580156120f357507fffffffffffffffffffffffffffffffffffffffffffffffffffffffffffffffff600a60008673ffffffffffffffffffffffffffffffffffffffff1673ffffffffffffffffffffffffffffffffffffffff16815260200190815260200160002060003373ffffffffffffffffffffffffffffffffffffffff1673ffffffffffffffffffffffffffffffffffffffff1681526020019081526020016000205414155b1561220c5781600a60008673ffffffffffffffffffffffffffffffffffffffff1673ffffffffffffffffffffffffffffffffffffffff16815260200190815260200160002060003373ffffffffffffffffffffffffffffffffffffffff1673ffffffffffffffffffffffffffffffffffffffff16815260200190815260200160002054101561218157600080fd5b81600a60008673ffffffffffffffffffffffffffffffffffffffff1673ffffffffffffffffffffffffffffffffffffffff16815260200190815260200160002060003373ffffffffffffffffffffffffffffffffffffffff1673ffffffffffffffffffffffffffffffffffffffff168152602001908152602001600020600082825403925050819055505b81600960008673ffffffffffffffffffffffffffffffffffffffff1673ffffffffffffffffffffffffffffffffffffffff1681526020019081526020016000206000828254039250508190555081600960008573ffffffffffffffffffffffffffffffffffffffff1673ffffffffffffffffffffffffffffffffffffffff168152602001908152602001600020600082825401925050819055508273ffffffffffffffffffffffffffffffffffffffff168473ffffffffffffffffffffffffffffffffffffffff167fddf252ad1be2c89b69c2b068fc378daa952ba7f163c4a11628f55a4df523b3ef846040518082815260200191505060405180910390a3600190509392505050565b6000600160009054906101000a900473ffffffffffffffffffffffffffffffffffffffff1673ffffffffffffffffffffffffffffffffffffffff1663200c6987836040518263ffffffff1660e01b81526004018080602001828103825283818151815260200191508051906020019080838360005b838110156123a657808201518184015260208101905061238b565b50505050905090810190601f1680156123d35780820380516001836020036101000a031916815260200191505b509250505060206040518083038186803b1580156123f057600080fd5b505afa158015612404573d6000803e3d6000fd5b505050506040513d602081101561241a57600080fd5b81019080805190602001909291905050509050919050565b80600960003373ffffffffffffffffffffffffffffffffffffffff1673ffffffffffffffffffffffffffffffffffffffff16815260200190815260200160002054101561247e57600080fd5b80600960003373ffffffffffffffffffffffffffffffffffffffff1673ffffffffffffffffffffffffffffffffffffffff168152602001908152602001600020600082825403925050819055503373ffffffffffffffffffffffffffffffffffffffff166108fc829081150290604051600060405180830381858888f19350505050158015612511573d6000803e3d6000fd5b503373ffffffffffffffffffffffffffffffffffffffff167f7fcf532c15f0a6db0bd6d0e038bea71d30d808c7d98cb3bf7268a95bf5081b65826040518082815260200191505060405180910390a250565b600460009054906101000a900460ff1681565b60008060608060608060606000896040516020018082805190602001908083835b602083106125ba5780518252602082019150602081019050602083039250612597565b6001836020036101000a0380198251168184511680821785525050505050509050019150506040516020818303038152906040528051906020012060001c9050600089905060008a141561261f57600760008381526020019081526020016000205490505b80985060009750600081111561264c57600660008281526020019081526020016000206003018054905097505b60608867ffffffffffffffff8111801561266557600080fd5b506040519080825280602002602001820160405280156126945781602001602082028036833780820191505090505b50905060608967ffffffffffffffff811180156126b057600080fd5b506040519080825280602002602001820160405280156126df5781602001602082028036833780820191505090505b50905060608a67ffffffffffffffff811180156126fb57600080fd5b5060405190808252806020026020018201604052801561272a5781602001602082028036833780820191505090505b50905060608b67ffffffffffffffff8111801561274657600080fd5b506040519080825280602002602001820160405280156127755781602001602082028036833780820191505090505b50905060608c67ffffffffffffffff8111801561279157600080fd5b506040519080825280602002602001820160405280156127c05781602001602082028036833780820191505090505b50905060005b8d8110156129bc5760006006600089815260200190815260200160002060030182815481106127f157fe5b906000526020600020015490506006600089815260200190815260200160002060040160008281526020019081526020016000206000015487838151811061283557fe5b6020026020010181815250506006600089815260200190815260200160002060040160008281526020019081526020016000206001015486838151811061287857fe5b60200260200101818152505060066000898152602001908152602001600020600401600082815260200190815260200160002060020160009054906101000a900473ffffffffffffffffffffffffffffffffffffffff168583815181106128db57fe5b602002602001019073ffffffffffffffffffffffffffffffffffffffff16908173ffffffffffffffffffffffffffffffffffffffff16815250506006600089815260200190815260200160002060040160008281526020019081526020016000206003015484838151811061294c57fe5b60200260200101818152505060066000898152602001908152602001600020600401600082815260200190815260200160002060040160009054906101000a900460ff1683838151811061299c57fe5b6020026020010190151590811515815250505080806001019150506127c6565b50849b50839a508299508198508097505050505050505092959891949750929550565b60006129e9613e9a565b73ffffffffffffffffffffffffffffffffffffffff1660008054906101000a900473ffffffffffffffffffffffffffffffffffffffff1673ffffffffffffffffffffffffffffffffffffffff1614612aa9576040517f08c379a00000000000000000000000000000000000000000000000000000000081526004018080602001828103825260208152602001807f4f776e61626c653a2063616c6c6572206973206e6f7420746865206f776e657281525060200191505060405180910390fd5b6000826040516020018082805190602001908083835b60208310612ae25780518252602082019150602081019050602083039250612abf565b6001836020036101000a0380198251168184511680821785525050505050509050019150506040516020818303038152906040528051906020012060001c9050600073ffffffffffffffffffffffffffffffffffffffff166008600083815260200190815260200160002060009054906101000a900473ffffffffffffffffffffffffffffffffffffffff1673ffffffffffffffffffffffffffffffffffffffff1614612bf7576040517f08c379a00000000000000000000000000000000000000000000000000000000081526004018080602001828103825260108152602001807f75726920616c7265616479206d696e740000000000000000000000000000000081525060200191505060405180910390fd5b836008600083815260200190815260200160002060006101000a81548173ffffffffffffffffffffffffffffffffffffffff021916908373ffffffffffffffffffffffffffffffffffffffff160217905550600160009054906101000a900473ffffffffffffffffffffffffffffffffffffffff1673ffffffffffffffffffffffffffffffffffffffff1663791c074130856040518363ffffffff1660e01b8152600401808373ffffffffffffffffffffffffffffffffffffffff16815260200180602001828103825283818151815260200191508051906020019080838360005b83811015612cf4578082015181840152602081019050612cd9565b50505050905090810190601f168015612d215780820380516001836020036101000a031916815260200191505b509350505050602060405180830381600087803b158015612d4157600080fd5b505af1158015612d55573d6000803e3d6000fd5b505050506040513d6020811015612d6b57600080fd5b810190808051906020019092919050505091505092915050565b60006005600081548092919060010191905055905090565b60096020528060005260406000206000915090505481565b612dbd613e9a565b73ffffffffffffffffffffffffffffffffffffffff1660008054906101000a900473ffffffffffffffffffffffffffffffffffffffff1673ffffffffffffffffffffffffffffffffffffffff1614612e7d576040517f08c379a00000000000000000000000000000000000000000000000000000000081526004018080602001828103825260208152602001807f4f776e61626c653a2063616c6c6572206973206e6f7420746865206f776e657281525060200191505060405180910390fd5b600073ffffffffffffffffffffffffffffffffffffffff1660008054906101000a900473ffffffffffffffffffffffffffffffffffffffff1673ffffffffffffffffffffffffffffffffffffffff167f8be0079c531659141344cd1fd0a4f28419497f9722a3daafe3b4186f6b6457e060405160405180910390a360008060006101000a81548173ffffffffffffffffffffffffffffffffffffffff021916908373ffffffffffffffffffffffffffffffffffffffff160217905550565b6000600160009054906101000a900473ffffffffffffffffffffffffffffffffffffffff1673ffffffffffffffffffffffffffffffffffffffff1663b3e444a7836040518263ffffffff1660e01b81526004018082815260200191505060206040518083038186803b158015612fb057600080fd5b505afa158015612fc4573d6000803e3d6000fd5b505050506040513d6020811015612fda57600080fd5b81019080805190602001909291905050509050919050565b60008080612fff85611e2e565b915091506000856040516020018082805190602001908083835b6020831061303c5780518252602082019150602081019050602083039250613019565b6001836020036101000a0380198251168184511680821785525050505050509050019150506040516020818303038152906040528051906020012060001c90506008600082815260200190815260200160002060009054906101000a900473ffffffffffffffffffffffffffffffffffffffff1673ffffffffffffffffffffffffffffffffffffffff163373ffffffffffffffffffffffffffffffffffffffff1614613150576040517f08c379a00000000000000000000000000000000000000000000000000000000081526004018080602001828103825260188152602001807f6f6e6c79207572694f776e65722063616e20616363657074000000000000000081525060200191505060405180910390fd5b60008314156131aa576040517f08c379a00000000000000000000000000000000000000000000000000000000081526004018080602001828103825260318152602001806142176031913960400191505060405180910390fd5b6001821415613221576040517f08c379a00000000000000000000000000000000000000000000000000000000081526004018080602001828103825260108152602001807f61756374696f6e20697320636c6f73650000000000000000000000000000000081525060200191505060405180910390fd5b60008060608060608060606132368d8b612576565b9650965096509650965096509650858551146132ba576040517f08c379a00000000000000000000000000000000000000000000000000000000081526004018080602001828103825260138152602001807f617272617920656c656d656e74206572726f720000000000000000000000000081525060200191505060405180910390fd5b85845114613330576040517f08c379a00000000000000000000000000000000000000000000000000000000081526004018080602001828103825260138152602001807f617272617920656c656d656e74206572726f720000000000000000000000000081525060200191505060405180910390fd5b858351146133a6576040517f08c379a00000000000000000000000000000000000000000000000000000000081526004018080602001828103825260138152602001807f617272617920656c656d656e74206572726f720000000000000000000000000081525060200191505060405180910390fd5b8582511461341c576040517f08c379a00000000000000000000000000000000000000000000000000000000081526004018080602001828103825260138152602001807f617272617920656c656d656e74206572726f720000000000000000000000000081525060200191505060405180910390fd5b85815114613492576040517f08c379a00000000000000000000000000000000000000000000000000000000081526004018080602001828103825260138152602001807f617272617920656c656d656e74206572726f720000000000000000000000000081525060200191505060405180910390fd5b6000805b878110156134f4578281815181106134aa57fe5b602002602001015115156001151514156134c3576134e7565b8381815181106134cf57fe5b60200260200101518e14156134e65760019c508091505b5b8080600101915050613496565b508b1515600115151461356f576040517f08c379a000000000000000000000000000000000000000000000000000000000815260040180806020018281038252600c8152602001807f6e6f206d6174636820626964000000000000000000000000000000000000000081525060200191505060405180910390fd5b60005b878110156135ea5782818151811061358657fe5b6020026020010151151560011515141561359f576135dd565b818114156135ac576135dd565b6135dc8582815181106135bb57fe5b60200260200101518583815181106135cf57fe5b6020026020010151613ea2565b5b8080600101915050613572565b506136088e8583815181106135fb57fe5b6020026020010151613fd4565b613612338e613ea2565b83818151811061361e57fe5b6020026020010151600860008b815260200190815260200160002060006101000a81548173ffffffffffffffffffffffffffffffffffffffff021916908373ffffffffffffffffffffffffffffffffffffffff1602179055506001600660008a81526020019081526020016000206002018190555083818151811061369f57fe5b602002602001015173ffffffffffffffffffffffffffffffffffffffff167faaae03389038864cf1f44112246a05f3cf80339184132a7bdfa11851f2a0dc898e8e6040518083815260200182151581526020019250505060405180910390a2505050505050505050505092915050565b60008060009054906101000a900473ffffffffffffffffffffffffffffffffffffffff16905090565b613740613e9a565b73ffffffffffffffffffffffffffffffffffffffff1660008054906101000a900473ffffffffffffffffffffffffffffffffffffffff1673ffffffffffffffffffffffffffffffffffffffff1614613800576040517f08c379a00000000000000000000000000000000000000000000000000000000081526004018080602001828103825260208152602001807f4f776e61626c653a2063616c6c6572206973206e6f7420746865206f776e657281525060200191505060405180910390fd5b600073ffffffffffffffffffffffffffffffffffffffff168173ffffffffffffffffffffffffffffffffffffffff1614156138a3576040517f08c379a000000000000000000000000000000000000000000000000000000000815260040180806020018281038252600f8152602001807f696e76616c69642061646472657373000000000000000000000000000000000081525060200191505060405180910390fd5b80600160006101000a81548173ffffffffffffffffffffffffffffffffffffffff021916908373ffffffffffffffffffffffffffffffffffffffff16021790555050565b60038054600181600116156101000203166002900480601f01602080910402602001604051908101604052809291908181526020018280546001816001161561010002031660029004801561397d5780601f106139525761010080835404028352916020019161397d565b820191906000526020600020905b81548152906001019060200180831161396057829003601f168201915b505050505081565b6000613992338484611fcd565b905092915050565b6000600160009054906101000a900473ffffffffffffffffffffffffffffffffffffffff1673ffffffffffffffffffffffffffffffffffffffff166318160ddd6040518163ffffffff1660e01b815260040160206040518083038186803b158015613a0457600080fd5b505afa158015613a18573d6000803e3d6000fd5b505050506040513d6020811015613a2e57600080fd5b8101908080519060200190929190505050905090565b60008060008092506000846040516020018082805190602001908083835b60208310613a855780518252602082019150602081019050602083039250613a62565b6001836020036101000a0380198251168184511680821785525050505050509050019150506040516020818303038152906040528051906020012060001c9050600160009054906101000a900473ffffffffffffffffffffffffffffffffffffffff1673ffffffffffffffffffffffffffffffffffffffff16630fed73e2866040518263ffffffff1660e01b81526004018080602001828103825283818151815260200191508051906020019080838360005b83811015613b53578082015181840152602081019050613b38565b50505050905090810190601f168015613b805780820380516001836020036101000a031916815260200191505b509250505060206040518083038186803b158015613b9d57600080fd5b505afa158015613bb1573d6000803e3d6000fd5b505050506040513d6020811015613bc757600080fd5b810190808051906020019092919050505092506008600082815260200190815260200160002060009054906101000a900473ffffffffffffffffffffffffffffffffffffffff16915060008314158015613c4e5750600073ffffffffffffffffffffffffffffffffffffffff168273ffffffffffffffffffffffffffffffffffffffff1614155b15613c5857600193505b509193909250565b600a602052816000526040600020602052806000526040600020600091509150505481565b6000600554905090565b613c97613e9a565b73ffffffffffffffffffffffffffffffffffffffff1660008054906101000a900473ffffffffffffffffffffffffffffffffffffffff1673ffffffffffffffffffffffffffffffffffffffff1614613d57576040517f08c379a00000000000000000000000000000000000000000000000000000000081526004018080602001828103825260208152602001807f4f776e61626c653a2063616c6c6572206973206e6f7420746865206f776e657281525060200191505060405180910390fd5b600073ffffffffffffffffffffffffffffffffffffffff168173ffffffffffffffffffffffffffffffffffffffff161415613ddd576040517f08c379a00000000000000000000000000000000000000000000000000000000081526004018080602001828103825260268152602001806141f16026913960400191505060405180910390fd5b8073ffffffffffffffffffffffffffffffffffffffff1660008054906101000a900473ffffffffffffffffffffffffffffffffffffffff1673ffffffffffffffffffffffffffffffffffffffff167f8be0079c531659141344cd1fd0a4f28419497f9722a3daafe3b4186f6b6457e060405160405180910390a3806000806101000a81548173ffffffffffffffffffffffffffffffffffffffff021916908373ffffffffffffffffffffffffffffffffffffffff16021790555050565b600033905090565b80600960003073ffffffffffffffffffffffffffffffffffffffff1673ffffffffffffffffffffffffffffffffffffffff168152602001908152602001600020541015613eee57600080fd5b80600960003073ffffffffffffffffffffffffffffffffffffffff1673ffffffffffffffffffffffffffffffffffffffff168152602001908152602001600020600082825403925050819055508173ffffffffffffffffffffffffffffffffffffffff166108fc829081150290604051600060405180830381858888f19350505050158015613f81573d6000803e3d6000fd5b508173ffffffffffffffffffffffffffffffffffffffff167f7fcf532c15f0a6db0bd6d0e038bea71d30d808c7d98cb3bf7268a95bf5081b65826040518082815260200191505060405180910390a25050565b60003073ffffffffffffffffffffffffffffffffffffffff1663111b9993846040518263ffffffff1660e01b81526004018080602001828103825283818151815260200191508051906020019080838360005b83811015614042578082015181840152602081019050614027565b50505050905090810190601f16801561406f5780820380516001836020036101000a031916815260200191505b509250505060206040518083038186803b15801561408c57600080fd5b505afa1580156140a0573d6000803e3d6000fd5b505050506040513d60208110156140b657600080fd5b810190808051906020019092919050505090506000811415614140576040517f08c379a000000000000000000000000000000000000000000000000000000000815260040180806020018281038252600d8152602001807f61737365744964206572726f720000000000000000000000000000000000000081525060200191505060405180910390fd5b600160009054906101000a900473ffffffffffffffffffffffffffffffffffffffff1673ffffffffffffffffffffffffffffffffffffffff1663a9059cbb83836040518363ffffffff1660e01b8152600401808373ffffffffffffffffffffffffffffffffffffffff16815260200182815260200192505050600060405180830381600087803b1580156141d357600080fd5b505af11580156141e7573d6000803e3d6000fd5b5050505050505056fe4f776e61626c653a206e6577206f776e657220697320746865207a65726f20616464726573736e6f2061756374696f6e20666f72207572692e206669727374206f6620616c6c2c20757269206e6565642061206269642ea26469706673582212200467dc0a8ad08476fea0163b06970156e283153d6a06fb392e723c9e98b7330964736f6c634300060c0033",
  "linkReferences": {},
  "deployedLinkReferences": {}
}