{
  "_format": "hh-sol-artifact-1",
  "contractName": "KanaShop",
  "sourceName": "contracts/KanaShop.sol",
  "abi": [
    {
      "inputs": [
        {
          "internalType": "address",
          "name": "_kToken",
          "type": "address"
        }
      ],
      "stateMutability": "nonpayable",
      "type": "constructor"
    },
    {
      "anonymous": false,
      "inputs": [
        {
          "indexed": true,
          "internalType": "address",
          "name": "src",
          "type": "address"
        },
        {
          "indexed": true,
          "internalType": "address",
          "name": "guy",
          "type": "address"
        },
        {
          "indexed": false,
          "internalType": "uint256",
          "name": "wad",
          "type": "uint256"
        }
      ],
      "name": "Approval",
      "type": "event"
    },
    {
      "anonymous": false,
      "inputs": [
        {
          "indexed": true,
          "internalType": "address",
          "name": "dst",
          "type": "address"
        },
        {
          "indexed": false,
          "internalType": "uint256",
          "name": "wad",
          "type": "uint256"
        }
      ],
      "name": "EventBuyKana",
      "type": "event"
    },
    {
      "anonymous": false,
      "inputs": [
        {
          "indexed": true,
          "internalType": "address",
          "name": "owner",
          "type": "address"
        },
        {
          "indexed": false,
          "internalType": "uint256",
          "name": "amount",
          "type": "uint256"
        }
      ],
      "name": "EventOwnerWithdraw",
      "type": "event"
    },
    {
      "anonymous": false,
      "inputs": [
        {
          "indexed": true,
          "internalType": "address",
          "name": "addr",
          "type": "address"
        },
        {
          "indexed": false,
          "internalType": "uint256",
          "name": "amountKana",
          "type": "uint256"
        }
      ],
      "name": "EventRelease",
      "type": "event"
    },
    {
      "anonymous": false,
      "inputs": [
        {
          "indexed": false,
          "internalType": "uint256",
          "name": "amountKana",
          "type": "uint256"
        },
        {
          "indexed": false,
          "internalType": "uint256",
          "name": "amountEth",
          "type": "uint256"
        }
      ],
      "name": "EventSetRawPrice",
      "type": "event"
    },
    {
      "anonymous": false,
      "inputs": [
        {
          "indexed": true,
          "internalType": "address",
          "name": "previousOwner",
          "type": "address"
        },
        {
          "indexed": true,
          "internalType": "address",
          "name": "newOwner",
          "type": "address"
        }
      ],
      "name": "OwnershipTransferred",
      "type": "event"
    },
    {
      "stateMutability": "payable",
      "type": "fallback"
    },
    {
      "inputs": [],
      "name": "_name",
      "outputs": [
        {
          "internalType": "string",
          "name": "",
          "type": "string"
        }
      ],
      "stateMutability": "view",
      "type": "function"
    },
    {
      "inputs": [],
      "name": "_symbol",
      "outputs": [
        {
          "internalType": "string",
          "name": "",
          "type": "string"
        }
      ],
      "stateMutability": "view",
      "type": "function"
    },
    {
      "inputs": [
        {
          "internalType": "address",
          "name": "",
          "type": "address"
        },
        {
          "internalType": "address",
          "name": "",
          "type": "address"
        }
      ],
      "name": "allowance",
      "outputs": [
        {
          "internalType": "uint256",
          "name": "",
          "type": "uint256"
        }
      ],
      "stateMutability": "view",
      "type": "function"
    },
    {
      "inputs": [
        {
          "internalType": "address",
          "name": "guy",
          "type": "address"
        },
        {
          "internalType": "uint256",
          "name": "wad",
          "type": "uint256"
        }
      ],
      "name": "approve",
      "outputs": [
        {
          "internalType": "bool",
          "name": "",
          "type": "bool"
        }
      ],
      "stateMutability": "nonpayable",
      "type": "function"
    },
    {
      "inputs": [
        {
          "internalType": "address",
          "name": "",
          "type": "address"
        }
      ],
      "name": "balanceOf",
      "outputs": [
        {
          "internalType": "uint256",
          "name": "",
          "type": "uint256"
        }
      ],
      "stateMutability": "view",
      "type": "function"
    },
    {
      "inputs": [],
      "name": "buyKana",
      "outputs": [],
      "stateMutability": "payable",
      "type": "function"
    },
    {
      "inputs": [],
      "name": "decimalsETH",
      "outputs": [
        {
          "internalType": "uint8",
          "name": "",
          "type": "uint8"
        }
      ],
      "stateMutability": "view",
      "type": "function"
    },
    {
      "inputs": [],
      "name": "decimalsKana",
      "outputs": [
        {
          "internalType": "uint8",
          "name": "",
          "type": "uint8"
        }
      ],
      "stateMutability": "view",
      "type": "function"
    },
    {
      "inputs": [
        {
          "internalType": "address",
          "name": "addrUser",
          "type": "address"
        }
      ],
      "name": "getOrdersByAddress",
      "outputs": [
        {
          "internalType": "uint256",
          "name": "totalOrders",
          "type": "uint256"
        },
        {
          "internalType": "address[]",
          "name": "addrUsers",
          "type": "address[]"
        },
        {
          "internalType": "uint256[]",
          "name": "amounts",
          "type": "uint256[]"
        },
        {
          "internalType": "bool[]",
          "name": "releases",
          "type": "bool[]"
        },
        {
          "internalType": "uint256[]",
          "name": "createTimes",
          "type": "uint256[]"
        },
        {
          "internalType": "uint256[]",
          "name": "updateTimes",
          "type": "uint256[]"
        }
      ],
      "stateMutability": "view",
      "type": "function"
    },
    {
      "inputs": [],
      "name": "getRate",
      "outputs": [
        {
          "internalType": "uint256",
          "name": "",
          "type": "uint256"
        }
      ],
      "stateMutability": "view",
      "type": "function"
    },
    {
      "inputs": [],
      "name": "getRawPrice",
      "outputs": [
        {
          "internalType": "uint256",
          "name": "amountKana",
          "type": "uint256"
        },
        {
          "internalType": "uint256",
          "name": "amountEth",
          "type": "uint256"
        }
      ],
      "stateMutability": "view",
      "type": "function"
    },
    {
      "inputs": [],
      "name": "owner",
      "outputs": [
        {
          "internalType": "address",
          "name": "",
          "type": "address"
        }
      ],
      "stateMutability": "view",
      "type": "function"
    },
    {
      "inputs": [
        {
          "internalType": "uint256",
          "name": "wad",
          "type": "uint256"
        }
      ],
      "name": "ownerWithdraw",
      "outputs": [],
      "stateMutability": "nonpayable",
      "type": "function"
    },
    {
      "inputs": [],
      "name": "release",
      "outputs": [],
      "stateMutability": "nonpayable",
      "type": "function"
    },
    {
      "inputs": [],
      "name": "renounceOwnership",
      "outputs": [],
      "stateMutability": "nonpayable",
      "type": "function"
    },
    {
      "inputs": [
        {
          "internalType": "uint256",
          "name": "amountKana",
          "type": "uint256"
        },
        {
          "internalType": "uint256",
          "name": "amountEth",
          "type": "uint256"
        }
      ],
      "name": "setRawPrice",
      "outputs": [],
      "stateMutability": "nonpayable",
      "type": "function"
    },
    {
      "inputs": [],
      "name": "totalSellLimit",
      "outputs": [
        {
          "internalType": "uint256",
          "name": "",
          "type": "uint256"
        }
      ],
      "stateMutability": "view",
      "type": "function"
    },
    {
      "inputs": [],
      "name": "totalSold",
      "outputs": [
        {
          "internalType": "uint256",
          "name": "",
          "type": "uint256"
        }
      ],
      "stateMutability": "view",
      "type": "function"
    },
    {
      "inputs": [],
      "name": "totalSupply",
      "outputs": [
        {
          "internalType": "uint256",
          "name": "",
          "type": "uint256"
        }
      ],
      "stateMutability": "view",
      "type": "function"
    },
    {
      "inputs": [
        {
          "internalType": "address",
          "name": "newOwner",
          "type": "address"
        }
      ],
      "name": "transferOwnership",
      "outputs": [],
      "stateMutability": "nonpayable",
      "type": "function"
    },
    {
      "stateMutability": "payable",
      "type": "receive"
    }
  ],
  "bytecode": "0x60806040526040518060400160405280600e81526020017f4b616e61546f6b656e2073686f70000000000000000000000000000000000000815250600290805190602001906200005192919062000277565b506040518060400160405280600881526020017f4b616e6153686f70000000000000000000000000000000000000000000000000815250600390805190602001906200009f92919062000277565b506008600460006101000a81548160ff021916908360ff1602179055506012600460016101000a81548160ff021916908360ff160217905550600460019054906101000a900460ff1660ff16600a0a60c8026007553480156200010157600080fd5b506040516200232638038062002326833981810160405260208110156200012757600080fd5b810190808051906020019092919050505060006200014a6200026f60201b60201c565b9050806000806101000a81548173ffffffffffffffffffffffffffffffffffffffff021916908373ffffffffffffffffffffffffffffffffffffffff1602179055508073ffffffffffffffffffffffffffffffffffffffff16600073ffffffffffffffffffffffffffffffffffffffff167f8be0079c531659141344cd1fd0a4f28419497f9722a3daafe3b4186f6b6457e060405160405180910390a35080600160006101000a81548173ffffffffffffffffffffffffffffffffffffffff021916908373ffffffffffffffffffffffffffffffffffffffff16021790555060006008819055507fffffffffffffffffffffffffffffffffffffffffffffffffffffffffffffffff60098190555060006005819055506000600681905550506200031d565b600033905090565b828054600181600116156101000203166002900490600052602060002090601f016020900481019282601f10620002ba57805160ff1916838001178555620002eb565b82800160010185558215620002eb579182015b82811115620002ea578251825591602001919060010190620002cd565b5b509050620002fa9190620002fe565b5090565b5b8082111562000319576000816000905550600101620002ff565b5090565b611ff9806200032d6000396000f3fe6080604052600436106101235760003560e01c8063715018a6116100a0578063b09f126611610064578063b09f1266146105e4578063b4a8ea7f14610674578063d28d8852146106a2578063dd62ed3e14610732578063f2fde38b146107b757610132565b8063715018a61461037d57806386d1a69f146103945780638da5cb5b146103ab5780639106d7ba146103ec57806399eeda021461041757610132565b80633abcab25116100e75780633abcab251461024f578063679aefce1461027d5780636bd26924146102a85780636fc5e35b146102ed57806370a082311461031857610132565b8063084a32371461013c578063095ea7b31461016e57806318160ddd146101df578063338e2aac1461020a57806333f707d11461021457610132565b3661013257610130610808565b005b61013a610808565b005b34801561014857600080fd5b50610151610ca2565b604051808381526020018281526020019250505060405180910390f35b34801561017a57600080fd5b506101c76004803603604081101561019157600080fd5b81019080803573ffffffffffffffffffffffffffffffffffffffff16906020019092919080359060200190929190505050610cb3565b60405180821515815260200191505060405180910390f35b3480156101eb57600080fd5b506101f4610da5565b6040518082815260200191505060405180910390f35b610212610808565b005b34801561022057600080fd5b5061024d6004803603602081101561023757600080fd5b8101908080359060200190929190505050610dad565b005b34801561025b57600080fd5b5061026461100d565b604051808260ff16815260200191505060405180910390f35b34801561028957600080fd5b50610292611024565b6040518082815260200191505060405180910390f35b3480156102b457600080fd5b506102eb600480360360408110156102cb57600080fd5b810190808035906020019092919080359060200190929190505050611039565b005b3480156102f957600080fd5b50610302611193565b6040518082815260200191505060405180910390f35b34801561032457600080fd5b506103676004803603602081101561033b57600080fd5b81019080803573ffffffffffffffffffffffffffffffffffffffff16906020019092919050505061119d565b6040518082815260200191505060405180910390f35b34801561038957600080fd5b506103926111b5565b005b3480156103a057600080fd5b506103a961133b565b005b3480156103b757600080fd5b506103c0611761565b604051808273ffffffffffffffffffffffffffffffffffffffff16815260200191505060405180910390f35b3480156103f857600080fd5b5061040161178a565b6040518082815260200191505060405180910390f35b34801561042357600080fd5b506104666004803603602081101561043a57600080fd5b81019080803573ffffffffffffffffffffffffffffffffffffffff169060200190929190505050611794565b60405180878152602001806020018060200180602001806020018060200186810386528b818151815260200191508051906020019060200280838360005b838110156104bf5780820151818401526020810190506104a4565b5050505090500186810385528a818151815260200191508051906020019060200280838360005b838110156105015780820151818401526020810190506104e6565b50505050905001868103845289818151815260200191508051906020019060200280838360005b83811015610543578082015181840152602081019050610528565b50505050905001868103835288818151815260200191508051906020019060200280838360005b8381101561058557808201518184015260208101905061056a565b50505050905001868103825287818151815260200191508051906020019060200280838360005b838110156105c75780820151818401526020810190506105ac565b505050509050019b50505050505050505050505060405180910390f35b3480156105f057600080fd5b506105f9611b3c565b6040518080602001828103825283818151815260200191508051906020019080838360005b8381101561063957808201518184015260208101905061061e565b50505050905090810190601f1680156106665780820380516001836020036101000a031916815260200191505b509250505060405180910390f35b34801561068057600080fd5b50610689611bda565b604051808260ff16815260200191505060405180910390f35b3480156106ae57600080fd5b506106b7611bf1565b6040518080602001828103825283818151815260200191508051906020019080838360005b838110156106f75780820151818401526020810190506106dc565b50505050905090810190601f1680156107245780820380516001836020036101000a031916815260200191505b509250505060405180910390f35b34801561073e57600080fd5b506107a16004803603604081101561075557600080fd5b81019080803573ffffffffffffffffffffffffffffffffffffffff169060200190929190803573ffffffffffffffffffffffffffffffffffffffff169060200190929190505050611c8f565b6040518082815260200191505060405180910390f35b3480156107c357600080fd5b50610806600480360360208110156107da57600080fd5b81019080803573ffffffffffffffffffffffffffffffffffffffff169060200190929190505050611cb4565b005b6000600460019054906101000a900460ff1660ff16600a0a60010290506000600460019054906101000a900460ff1660ff16600a0a600a02905060004290508234101580156108575750813411155b6108c9576040517f08c379a000000000000000000000000000000000000000000000000000000000815260040180806020018281038252600c8152602001807f616d6f756e74206c696d6974000000000000000000000000000000000000000081525060200191505060405180910390fd5b8134600d60003373ffffffffffffffffffffffffffffffffffffffff1673ffffffffffffffffffffffffffffffffffffffff16815260200190815260200160002054011115610980576040517f08c379a00000000000000000000000000000000000000000000000000000000081526004018080602001828103825260198152602001807f6164647265737320746f74616c206c696d6974206572726f720000000000000081525060200191505060405180910390fd5b600754346008540111156109fc576040517f08c379a00000000000000000000000000000000000000000000000000000000081526004018080602001828103825260108152602001807f746f74616c2073656c6c206c696d69740000000000000000000000000000000081525060200191505060405180910390fd5b600a81908060018154018082558091505060019003906000526020600020016000909190919091505560006001600a8054905003905033600b600083815260200190815260200160002060000160006101000a81548173ffffffffffffffffffffffffffffffffffffffff021916908373ffffffffffffffffffffffffffffffffffffffff16021790555034600b6000838152602001908152602001600020600101819055506000600b600083815260200190815260200160002060020160006101000a81548160ff02191690831515021790555081600b60008381526020019081526020016000206003018190555081600b60008381526020019081526020016000206004018190555033600c60003373ffffffffffffffffffffffffffffffffffffffff1673ffffffffffffffffffffffffffffffffffffffff16815260200190815260200160002060000160006101000a81548173ffffffffffffffffffffffffffffffffffffffff021916908373ffffffffffffffffffffffffffffffffffffffff160217905550600c60003373ffffffffffffffffffffffffffffffffffffffff1673ffffffffffffffffffffffffffffffffffffffff16815260200190815260200160002060010181908060018154018082558091505060019003906000526020600020016000909190919091505534600d60003373ffffffffffffffffffffffffffffffffffffffff1673ffffffffffffffffffffffffffffffffffffffff16815260200190815260200160002060008282540192505081905550346008600082825401925050819055503373ffffffffffffffffffffffffffffffffffffffff167f182f79e177118dba88773ce5fabd147422d7a39e1baa59838cb8bcb33babda40346040518082815260200191505060405180910390a250505050565b600080600554915060065490509091565b600081600e60003373ffffffffffffffffffffffffffffffffffffffff1673ffffffffffffffffffffffffffffffffffffffff16815260200190815260200160002060008573ffffffffffffffffffffffffffffffffffffffff1673ffffffffffffffffffffffffffffffffffffffff168152602001908152602001600020819055508273ffffffffffffffffffffffffffffffffffffffff163373ffffffffffffffffffffffffffffffffffffffff167f8c5be1e5ebec7d5bd14f71427d1e84f3dd0314c0f7b2291e5b200ac8c7c3b925846040518082815260200191505060405180910390a36001905092915050565b600047905090565b610db5611ebf565b73ffffffffffffffffffffffffffffffffffffffff1660008054906101000a900473ffffffffffffffffffffffffffffffffffffffff1673ffffffffffffffffffffffffffffffffffffffff1614610e75576040517f08c379a00000000000000000000000000000000000000000000000000000000081526004018080602001828103825260208152602001807f4f776e61626c653a2063616c6c6572206973206e6f7420746865206f776e657281525060200191505060405180910390fd5b3073ffffffffffffffffffffffffffffffffffffffff16638da5cb5b6040518163ffffffff1660e01b815260040160206040518083038186803b158015610ebb57600080fd5b505afa158015610ecf573d6000803e3d6000fd5b505050506040513d6020811015610ee557600080fd5b810190808051906020019092919050505073ffffffffffffffffffffffffffffffffffffffff166108fc829081150290604051600060405180830381858888f19350505050158015610f3b573d6000803e3d6000fd5b503073ffffffffffffffffffffffffffffffffffffffff16638da5cb5b6040518163ffffffff1660e01b815260040160206040518083038186803b158015610f8257600080fd5b505afa158015610f96573d6000803e3d6000fd5b505050506040513d6020811015610fac57600080fd5b810190808051906020019092919050505073ffffffffffffffffffffffffffffffffffffffff167f4ad3fa841b4f5843839c0cf45813b8f0fd06ff727b8208ab010d261467031566826040518082815260200191505060405180910390a250565b6000600460019054906101000a900460ff16905090565b6000611034600554600654611ec7565b905090565b611041611ebf565b73ffffffffffffffffffffffffffffffffffffffff1660008054906101000a900473ffffffffffffffffffffffffffffffffffffffff1673ffffffffffffffffffffffffffffffffffffffff1614611101576040517f08c379a00000000000000000000000000000000000000000000000000000000081526004018080602001828103825260208152602001807f4f776e61626c653a2063616c6c6572206973206e6f7420746865206f776e657281525060200191505060405180910390fd5b600161110d8383611ec7565b1015611181576040517f08c379a00000000000000000000000000000000000000000000000000000000081526004018080602001828103825260138152602001807f6b616e6120707269636520746f6f20686967680000000000000000000000000081525060200191505060405180910390fd5b81600581905550806006819055505050565b6000600754905090565b600d6020528060005260406000206000915090505481565b6111bd611ebf565b73ffffffffffffffffffffffffffffffffffffffff1660008054906101000a900473ffffffffffffffffffffffffffffffffffffffff1673ffffffffffffffffffffffffffffffffffffffff161461127d576040517f08c379a00000000000000000000000000000000000000000000000000000000081526004018080602001828103825260208152602001807f4f776e61626c653a2063616c6c6572206973206e6f7420746865206f776e657281525060200191505060405180910390fd5b600073ffffffffffffffffffffffffffffffffffffffff1660008054906101000a900473ffffffffffffffffffffffffffffffffffffffff1673ffffffffffffffffffffffffffffffffffffffff167f8be0079c531659141344cd1fd0a4f28419497f9722a3daafe3b4186f6b6457e060405160405180910390a360008060006101000a81548173ffffffffffffffffffffffffffffffffffffffff021916908373ffffffffffffffffffffffffffffffffffffffff160217905550565b611343611ebf565b73ffffffffffffffffffffffffffffffffffffffff1660008054906101000a900473ffffffffffffffffffffffffffffffffffffffff1673ffffffffffffffffffffffffffffffffffffffff1614611403576040517f08c379a00000000000000000000000000000000000000000000000000000000081526004018080602001828103825260208152602001807f4f776e61626c653a2063616c6c6572206973206e6f7420746865206f776e657281525060200191505060405180910390fd5b6000600554141561147c576040517f08c379a00000000000000000000000000000000000000000000000000000000081526004018080602001828103825260198152602001807f6e65656420746f20736574207072696365206f66206b616e610000000000000081525060200191505060405180910390fd5b600060065414156114f5576040517f08c379a00000000000000000000000000000000000000000000000000000000081526004018080602001828103825260188152602001807f6e65656420746f20736574207072696365206f6620657468000000000000000081525060200191505060405180910390fd5b6000600160095401905060008190505b600a8054905081101561175657600b600082815260200190815260200160002060020160009054906101000a900460ff16151560011515141561154757611749565b6000600654600554600b600085815260200190815260200160002060010154028161156e57fe5b049050600160009054906101000a900473ffffffffffffffffffffffffffffffffffffffff1673ffffffffffffffffffffffffffffffffffffffff1663a9059cbb600b600085815260200190815260200160002060000160009054906101000a900473ffffffffffffffffffffffffffffffffffffffff16836040518363ffffffff1660e01b8152600401808373ffffffffffffffffffffffffffffffffffffffff16815260200182815260200192505050602060405180830381600087803b15801561163a57600080fd5b505af115801561164e573d6000803e3d6000fd5b505050506040513d602081101561166457600080fd5b8101908080519060200190929190505050506001600b600084815260200190815260200160002060020160006101000a81548160ff02191690831515021790555042600b600084815260200190815260200160002060040181905550819250600b600083815260200190815260200160002060000160009054906101000a900473ffffffffffffffffffffffffffffffffffffffff1673ffffffffffffffffffffffffffffffffffffffff167fd7c43f1f3562ee317392c7a54a3898cababfcfc03cc65b1c220ef345067ca493826040518082815260200191505060405180910390a2505b8080600101915050611505565b508060098190555050565b60008060009054906101000a900473ffffffffffffffffffffffffffffffffffffffff16905090565b6000600854905090565b60006060806060806060600c60008873ffffffffffffffffffffffffffffffffffffffff1673ffffffffffffffffffffffffffffffffffffffff16815260200190815260200160002060010180549050955060608667ffffffffffffffff811180156117ff57600080fd5b5060405190808252806020026020018201604052801561182e5781602001602082028036833780820191505090505b50905060608767ffffffffffffffff8111801561184a57600080fd5b506040519080825280602002602001820160405280156118795781602001602082028036833780820191505090505b50905060608867ffffffffffffffff8111801561189557600080fd5b506040519080825280602002602001820160405280156118c45781602001602082028036833780820191505090505b50905060608967ffffffffffffffff811180156118e057600080fd5b5060405190808252806020026020018201604052801561190f5781602001602082028036833780820191505090505b50905060608a67ffffffffffffffff8111801561192b57600080fd5b5060405190808252806020026020018201604052801561195a5781602001602082028036833780820191505090505b50905060005b8b811015611b1e576000600c60008f73ffffffffffffffffffffffffffffffffffffffff1673ffffffffffffffffffffffffffffffffffffffff16815260200190815260200160002060010182815481106119b757fe5b90600052602060002001549050600b600082815260200190815260200160002060000160009054906101000a900473ffffffffffffffffffffffffffffffffffffffff16878381518110611a0757fe5b602002602001019073ffffffffffffffffffffffffffffffffffffffff16908173ffffffffffffffffffffffffffffffffffffffff1681525050600b600082815260200190815260200160002060010154868381518110611a6457fe5b602002602001018181525050600b600082815260200190815260200160002060020160009054906101000a900460ff16858381518110611aa057fe5b602002602001019015159081151581525050600b600082815260200190815260200160002060030154848381518110611ad557fe5b602002602001018181525050600b600082815260200190815260200160002060040154838381518110611b0457fe5b602002602001018181525050508080600101915050611960565b50849950839850829750819650809550505050505091939550919395565b60038054600181600116156101000203166002900480601f016020809104026020016040519081016040528092919081815260200182805460018160011615610100020316600290048015611bd25780601f10611ba757610100808354040283529160200191611bd2565b820191906000526020600020905b815481529060010190602001808311611bb557829003601f168201915b505050505081565b6000600460009054906101000a900460ff16905090565b60028054600181600116156101000203166002900480601f016020809104026020016040519081016040528092919081815260200182805460018160011615610100020316600290048015611c875780601f10611c5c57610100808354040283529160200191611c87565b820191906000526020600020905b815481529060010190602001808311611c6a57829003601f168201915b505050505081565b600e602052816000526040600020602052806000526040600020600091509150505481565b611cbc611ebf565b73ffffffffffffffffffffffffffffffffffffffff1660008054906101000a900473ffffffffffffffffffffffffffffffffffffffff1673ffffffffffffffffffffffffffffffffffffffff1614611d7c576040517f08c379a00000000000000000000000000000000000000000000000000000000081526004018080602001828103825260208152602001807f4f776e61626c653a2063616c6c6572206973206e6f7420746865206f776e657281525060200191505060405180910390fd5b600073ffffffffffffffffffffffffffffffffffffffff168173ffffffffffffffffffffffffffffffffffffffff161415611e02576040517f08c379a0000000000000000000000000000000000000000000000000000000008152600401808060200182810382526026815260200180611f9e6026913960400191505060405180910390fd5b8073ffffffffffffffffffffffffffffffffffffffff1660008054906101000a900473ffffffffffffffffffffffffffffffffffffffff1673ffffffffffffffffffffffffffffffffffffffff167f8be0079c531659141344cd1fd0a4f28419497f9722a3daafe3b4186f6b6457e060405160405180910390a3806000806101000a81548173ffffffffffffffffffffffffffffffffffffffff021916908373ffffffffffffffffffffffffffffffffffffffff16021790555050565b600033905090565b6000600460009054906101000a900460ff1660ff16600460019054906101000a900460ff1660ff161015611f63576040517f08c379a000000000000000000000000000000000000000000000000000000000815260040180806020018281038252600d8152602001807f646563696d616c206572726f720000000000000000000000000000000000000081525060200191505060405180910390fd5b81600460009054906101000a900460ff16600460019054906101000a900460ff160360ff16600a0a840281611f9457fe5b0490509291505056fe4f776e61626c653a206e6577206f776e657220697320746865207a65726f2061646472657373a2646970667358221220b9be09574e3d58d8bd2658c84018ba984b6cac530cb4183da3bab2b80613996664736f6c634300060c0033",
  "linkReferences": {},
  "deployedLinkReferences": {}
}