{
  "_format": "hh-sol-artifact-1",
  "contractName": "KanaShop",
  "sourceName": "contracts/KanaShop.sol",
  "abi": [
    {
      "inputs": [
        {
          "internalType": "address",
          "name": "_kToken",
          "type": "address"
        }
      ],
      "stateMutability": "nonpayable",
      "type": "constructor"
    },
    {
      "anonymous": false,
      "inputs": [
        {
          "indexed": true,
          "internalType": "address",
          "name": "src",
          "type": "address"
        },
        {
          "indexed": true,
          "internalType": "address",
          "name": "guy",
          "type": "address"
        },
        {
          "indexed": false,
          "internalType": "uint256",
          "name": "wad",
          "type": "uint256"
        }
      ],
      "name": "Approval",
      "type": "event"
    },
    {
      "anonymous": false,
      "inputs": [
        {
          "indexed": true,
          "internalType": "address",
          "name": "dst",
          "type": "address"
        },
        {
          "indexed": false,
          "internalType": "uint256",
          "name": "wad",
          "type": "uint256"
        }
      ],
      "name": "EventBuyKana",
      "type": "event"
    },
    {
      "anonymous": false,
      "inputs": [
        {
          "indexed": true,
          "internalType": "address",
          "name": "owner",
          "type": "address"
        },
        {
          "indexed": false,
          "internalType": "uint256",
          "name": "amount",
          "type": "uint256"
        }
      ],
      "name": "EventOwnerWithdraw",
      "type": "event"
    },
    {
      "anonymous": false,
      "inputs": [
        {
          "indexed": true,
          "internalType": "address",
          "name": "previousOwner",
          "type": "address"
        },
        {
          "indexed": true,
          "internalType": "address",
          "name": "newOwner",
          "type": "address"
        }
      ],
      "name": "OwnershipTransferred",
      "type": "event"
    },
    {
      "stateMutability": "payable",
      "type": "fallback"
    },
    {
      "inputs": [],
      "name": "_decimalsETH",
      "outputs": [
        {
          "internalType": "uint8",
          "name": "",
          "type": "uint8"
        }
      ],
      "stateMutability": "view",
      "type": "function"
    },
    {
      "inputs": [],
      "name": "_decimalsKana",
      "outputs": [
        {
          "internalType": "uint8",
          "name": "",
          "type": "uint8"
        }
      ],
      "stateMutability": "view",
      "type": "function"
    },
    {
      "inputs": [],
      "name": "_name",
      "outputs": [
        {
          "internalType": "string",
          "name": "",
          "type": "string"
        }
      ],
      "stateMutability": "view",
      "type": "function"
    },
    {
      "inputs": [],
      "name": "_symbol",
      "outputs": [
        {
          "internalType": "string",
          "name": "",
          "type": "string"
        }
      ],
      "stateMutability": "view",
      "type": "function"
    },
    {
      "inputs": [
        {
          "internalType": "address",
          "name": "",
          "type": "address"
        },
        {
          "internalType": "address",
          "name": "",
          "type": "address"
        }
      ],
      "name": "allowance",
      "outputs": [
        {
          "internalType": "uint256",
          "name": "",
          "type": "uint256"
        }
      ],
      "stateMutability": "view",
      "type": "function"
    },
    {
      "inputs": [
        {
          "internalType": "address",
          "name": "guy",
          "type": "address"
        },
        {
          "internalType": "uint256",
          "name": "wad",
          "type": "uint256"
        }
      ],
      "name": "approve",
      "outputs": [
        {
          "internalType": "bool",
          "name": "",
          "type": "bool"
        }
      ],
      "stateMutability": "nonpayable",
      "type": "function"
    },
    {
      "inputs": [
        {
          "internalType": "address",
          "name": "",
          "type": "address"
        }
      ],
      "name": "balanceOf",
      "outputs": [
        {
          "internalType": "uint256",
          "name": "",
          "type": "uint256"
        }
      ],
      "stateMutability": "view",
      "type": "function"
    },
    {
      "inputs": [],
      "name": "buyKana",
      "outputs": [],
      "stateMutability": "payable",
      "type": "function"
    },
    {
      "inputs": [],
      "name": "decimalsETH",
      "outputs": [
        {
          "internalType": "uint8",
          "name": "",
          "type": "uint8"
        }
      ],
      "stateMutability": "view",
      "type": "function"
    },
    {
      "inputs": [],
      "name": "decimalsKana",
      "outputs": [
        {
          "internalType": "uint8",
          "name": "",
          "type": "uint8"
        }
      ],
      "stateMutability": "view",
      "type": "function"
    },
    {
      "inputs": [
        {
          "internalType": "address",
          "name": "addrUser",
          "type": "address"
        }
      ],
      "name": "getOrdersByAddress",
      "outputs": [
        {
          "internalType": "uint256",
          "name": "totalOrders",
          "type": "uint256"
        },
        {
          "internalType": "address[]",
          "name": "addrUsers",
          "type": "address[]"
        },
        {
          "internalType": "uint256[]",
          "name": "amounts",
          "type": "uint256[]"
        },
        {
          "internalType": "bool[]",
          "name": "releases",
          "type": "bool[]"
        },
        {
          "internalType": "uint256[]",
          "name": "createTimes",
          "type": "uint256[]"
        },
        {
          "internalType": "uint256[]",
          "name": "updateTimes",
          "type": "uint256[]"
        }
      ],
      "stateMutability": "view",
      "type": "function"
    },
    {
      "inputs": [],
      "name": "owner",
      "outputs": [
        {
          "internalType": "address",
          "name": "",
          "type": "address"
        }
      ],
      "stateMutability": "view",
      "type": "function"
    },
    {
      "inputs": [
        {
          "internalType": "uint256",
          "name": "wad",
          "type": "uint256"
        }
      ],
      "name": "ownerWithdraw",
      "outputs": [],
      "stateMutability": "nonpayable",
      "type": "function"
    },
    {
      "inputs": [],
      "name": "release",
      "outputs": [],
      "stateMutability": "nonpayable",
      "type": "function"
    },
    {
      "inputs": [],
      "name": "renounceOwnership",
      "outputs": [],
      "stateMutability": "nonpayable",
      "type": "function"
    },
    {
      "inputs": [],
      "name": "totalSellLimit",
      "outputs": [
        {
          "internalType": "uint256",
          "name": "",
          "type": "uint256"
        }
      ],
      "stateMutability": "view",
      "type": "function"
    },
    {
      "inputs": [],
      "name": "totalSold",
      "outputs": [
        {
          "internalType": "uint256",
          "name": "",
          "type": "uint256"
        }
      ],
      "stateMutability": "view",
      "type": "function"
    },
    {
      "inputs": [],
      "name": "totalSupply",
      "outputs": [
        {
          "internalType": "uint256",
          "name": "",
          "type": "uint256"
        }
      ],
      "stateMutability": "view",
      "type": "function"
    },
    {
      "inputs": [
        {
          "internalType": "address",
          "name": "newOwner",
          "type": "address"
        }
      ],
      "name": "transferOwnership",
      "outputs": [],
      "stateMutability": "nonpayable",
      "type": "function"
    },
    {
      "stateMutability": "payable",
      "type": "receive"
    }
  ],
  "bytecode": "0x60806040526040518060400160405280600e81526020017f4b616e61546f6b656e2073686f70000000000000000000000000000000000000815250600290805190602001906200005192919062000258565b506040518060400160405280600881526020017f4b616e6153686f70000000000000000000000000000000000000000000000000815250600390805190602001906200009f92919062000258565b506008600460006101000a81548160ff021916908360ff1602179055506012600460016101000a81548160ff021916908360ff160217905550600460019054906101000a900460ff1660ff16600a0a60c8026007553480156200010157600080fd5b5060405162001d2a38038062001d2a833981810160405260208110156200012757600080fd5b810190808051906020019092919050505060006200014a6200025060201b60201c565b9050806000806101000a81548173ffffffffffffffffffffffffffffffffffffffff021916908373ffffffffffffffffffffffffffffffffffffffff1602179055508073ffffffffffffffffffffffffffffffffffffffff16600073ffffffffffffffffffffffffffffffffffffffff167f8be0079c531659141344cd1fd0a4f28419497f9722a3daafe3b4186f6b6457e060405160405180910390a35080600160006101000a81548173ffffffffffffffffffffffffffffffffffffffff021916908373ffffffffffffffffffffffffffffffffffffffff160217905550600060088190555060006009819055506000600581905550600060068190555050620002fe565b600033905090565b828054600181600116156101000203166002900490600052602060002090601f016020900481019282601f106200029b57805160ff1916838001178555620002cc565b82800160010185558215620002cc579182015b82811115620002cb578251825591602001919060010190620002ae565b5b509050620002db9190620002df565b5090565b5b80821115620002fa576000816000905550600101620002e0565b5090565b611a1c806200030e6000396000f3fe6080604052600436106101185760003560e01c806386d1a69f116100a0578063b3fa3a6f11610064578063b3fa3a6f146105f5578063b4a8ea7f14610623578063d28d885214610651578063dd62ed3e146106e1578063f2fde38b1461076657610127565b806386d1a69f146103155780638da5cb5b1461032c5780639106d7ba1461036d57806399eeda0214610398578063b09f12661461056557610127565b806333f707d1116100e757806333f707d1146102055780633abcab25146102405780636fc5e35b1461026e57806370a0823114610299578063715018a6146102fe57610127565b8063071f4fb114610131578063095ea7b31461015f57806318160ddd146101d0578063338e2aac146101fb57610127565b36610127576101256107b7565b005b61012f6107b7565b005b34801561013d57600080fd5b50610146610c51565b604051808260ff16815260200191505060405180910390f35b34801561016b57600080fd5b506101b86004803603604081101561018257600080fd5b81019080803573ffffffffffffffffffffffffffffffffffffffff16906020019092919080359060200190929190505050610c64565b60405180821515815260200191505060405180910390f35b3480156101dc57600080fd5b506101e5610d56565b6040518082815260200191505060405180910390f35b6102036107b7565b005b34801561021157600080fd5b5061023e6004803603602081101561022857600080fd5b8101908080359060200190929190505050610d5e565b005b34801561024c57600080fd5b50610255610fbe565b604051808260ff16815260200191505060405180910390f35b34801561027a57600080fd5b50610283610fd5565b6040518082815260200191505060405180910390f35b3480156102a557600080fd5b506102e8600480360360208110156102bc57600080fd5b81019080803573ffffffffffffffffffffffffffffffffffffffff169060200190929190505050610fdf565b6040518082815260200191505060405180910390f35b34801561030a57600080fd5b50610313610ff7565b005b34801561032157600080fd5b5061032a61117d565b005b34801561033857600080fd5b50610341611247565b604051808273ffffffffffffffffffffffffffffffffffffffff16815260200191505060405180910390f35b34801561037957600080fd5b50610382611270565b6040518082815260200191505060405180910390f35b3480156103a457600080fd5b506103e7600480360360208110156103bb57600080fd5b81019080803573ffffffffffffffffffffffffffffffffffffffff16906020019092919050505061127a565b60405180878152602001806020018060200180602001806020018060200186810386528b818151815260200191508051906020019060200280838360005b83811015610440578082015181840152602081019050610425565b5050505090500186810385528a818151815260200191508051906020019060200280838360005b83811015610482578082015181840152602081019050610467565b50505050905001868103845289818151815260200191508051906020019060200280838360005b838110156104c45780820151818401526020810190506104a9565b50505050905001868103835288818151815260200191508051906020019060200280838360005b838110156105065780820151818401526020810190506104eb565b50505050905001868103825287818151815260200191508051906020019060200280838360005b8381101561054857808201518184015260208101905061052d565b505050509050019b50505050505050505050505060405180910390f35b34801561057157600080fd5b5061057a611622565b6040518080602001828103825283818151815260200191508051906020019080838360005b838110156105ba57808201518184015260208101905061059f565b50505050905090810190601f1680156105e75780820380516001836020036101000a031916815260200191505b509250505060405180910390f35b34801561060157600080fd5b5061060a6116c0565b604051808260ff16815260200191505060405180910390f35b34801561062f57600080fd5b506106386116d3565b604051808260ff16815260200191505060405180910390f35b34801561065d57600080fd5b506106666116ea565b6040518080602001828103825283818151815260200191508051906020019080838360005b838110156106a657808201518184015260208101905061068b565b50505050905090810190601f1680156106d35780820380516001836020036101000a031916815260200191505b509250505060405180910390f35b3480156106ed57600080fd5b506107506004803603604081101561070457600080fd5b81019080803573ffffffffffffffffffffffffffffffffffffffff169060200190929190803573ffffffffffffffffffffffffffffffffffffffff169060200190929190505050611788565b6040518082815260200191505060405180910390f35b34801561077257600080fd5b506107b56004803603602081101561078957600080fd5b81019080803573ffffffffffffffffffffffffffffffffffffffff1690602001909291905050506117ad565b005b6000600460019054906101000a900460ff1660ff16600a0a60010290506000600460019054906101000a900460ff1660ff16600a0a600a02905060004290508234101580156108065750813411155b610878576040517f08c379a000000000000000000000000000000000000000000000000000000000815260040180806020018281038252600c8152602001807f616d6f756e74206c696d6974000000000000000000000000000000000000000081525060200191505060405180910390fd5b8134600d60003373ffffffffffffffffffffffffffffffffffffffff1673ffffffffffffffffffffffffffffffffffffffff1681526020019081526020016000205401111561092f576040517f08c379a00000000000000000000000000000000000000000000000000000000081526004018080602001828103825260198152602001807f6164647265737320746f74616c206c696d6974206572726f720000000000000081525060200191505060405180910390fd5b600754346008540111156109ab576040517f08c379a00000000000000000000000000000000000000000000000000000000081526004018080602001828103825260108152602001807f746f74616c2073656c6c206c696d69740000000000000000000000000000000081525060200191505060405180910390fd5b600a81908060018154018082558091505060019003906000526020600020016000909190919091505560006001600a8054905003905033600b600083815260200190815260200160002060000160006101000a81548173ffffffffffffffffffffffffffffffffffffffff021916908373ffffffffffffffffffffffffffffffffffffffff16021790555034600b6000838152602001908152602001600020600101819055506000600b600083815260200190815260200160002060020160006101000a81548160ff02191690831515021790555081600b60008381526020019081526020016000206003018190555081600b60008381526020019081526020016000206004018190555033600c60003373ffffffffffffffffffffffffffffffffffffffff1673ffffffffffffffffffffffffffffffffffffffff16815260200190815260200160002060000160006101000a81548173ffffffffffffffffffffffffffffffffffffffff021916908373ffffffffffffffffffffffffffffffffffffffff160217905550600c60003373ffffffffffffffffffffffffffffffffffffffff1673ffffffffffffffffffffffffffffffffffffffff16815260200190815260200160002060010181908060018154018082558091505060019003906000526020600020016000909190919091505534600d60003373ffffffffffffffffffffffffffffffffffffffff1673ffffffffffffffffffffffffffffffffffffffff16815260200190815260200160002060008282540192505081905550346008600082825401925050819055503373ffffffffffffffffffffffffffffffffffffffff167f182f79e177118dba88773ce5fabd147422d7a39e1baa59838cb8bcb33babda40346040518082815260200191505060405180910390a250505050565b600460009054906101000a900460ff1681565b600081600e60003373ffffffffffffffffffffffffffffffffffffffff1673ffffffffffffffffffffffffffffffffffffffff16815260200190815260200160002060008573ffffffffffffffffffffffffffffffffffffffff1673ffffffffffffffffffffffffffffffffffffffff168152602001908152602001600020819055508273ffffffffffffffffffffffffffffffffffffffff163373ffffffffffffffffffffffffffffffffffffffff167f8c5be1e5ebec7d5bd14f71427d1e84f3dd0314c0f7b2291e5b200ac8c7c3b925846040518082815260200191505060405180910390a36001905092915050565b600047905090565b610d666119b8565b73ffffffffffffffffffffffffffffffffffffffff1660008054906101000a900473ffffffffffffffffffffffffffffffffffffffff1673ffffffffffffffffffffffffffffffffffffffff1614610e26576040517f08c379a00000000000000000000000000000000000000000000000000000000081526004018080602001828103825260208152602001807f4f776e61626c653a2063616c6c6572206973206e6f7420746865206f776e657281525060200191505060405180910390fd5b3073ffffffffffffffffffffffffffffffffffffffff16638da5cb5b6040518163ffffffff1660e01b815260040160206040518083038186803b158015610e6c57600080fd5b505afa158015610e80573d6000803e3d6000fd5b505050506040513d6020811015610e9657600080fd5b810190808051906020019092919050505073ffffffffffffffffffffffffffffffffffffffff166108fc829081150290604051600060405180830381858888f19350505050158015610eec573d6000803e3d6000fd5b503073ffffffffffffffffffffffffffffffffffffffff16638da5cb5b6040518163ffffffff1660e01b815260040160206040518083038186803b158015610f3357600080fd5b505afa158015610f47573d6000803e3d6000fd5b505050506040513d6020811015610f5d57600080fd5b810190808051906020019092919050505073ffffffffffffffffffffffffffffffffffffffff167f4ad3fa841b4f5843839c0cf45813b8f0fd06ff727b8208ab010d261467031566826040518082815260200191505060405180910390a250565b6000600460019054906101000a900460ff16905090565b6000600754905090565b600d6020528060005260406000206000915090505481565b610fff6119b8565b73ffffffffffffffffffffffffffffffffffffffff1660008054906101000a900473ffffffffffffffffffffffffffffffffffffffff1673ffffffffffffffffffffffffffffffffffffffff16146110bf576040517f08c379a00000000000000000000000000000000000000000000000000000000081526004018080602001828103825260208152602001807f4f776e61626c653a2063616c6c6572206973206e6f7420746865206f776e657281525060200191505060405180910390fd5b600073ffffffffffffffffffffffffffffffffffffffff1660008054906101000a900473ffffffffffffffffffffffffffffffffffffffff1673ffffffffffffffffffffffffffffffffffffffff167f8be0079c531659141344cd1fd0a4f28419497f9722a3daafe3b4186f6b6457e060405160405180910390a360008060006101000a81548173ffffffffffffffffffffffffffffffffffffffff021916908373ffffffffffffffffffffffffffffffffffffffff160217905550565b6111856119b8565b73ffffffffffffffffffffffffffffffffffffffff1660008054906101000a900473ffffffffffffffffffffffffffffffffffffffff1673ffffffffffffffffffffffffffffffffffffffff1614611245576040517f08c379a00000000000000000000000000000000000000000000000000000000081526004018080602001828103825260208152602001807f4f776e61626c653a2063616c6c6572206973206e6f7420746865206f776e657281525060200191505060405180910390fd5b565b60008060009054906101000a900473ffffffffffffffffffffffffffffffffffffffff16905090565b6000600854905090565b60006060806060806060600c60008873ffffffffffffffffffffffffffffffffffffffff1673ffffffffffffffffffffffffffffffffffffffff16815260200190815260200160002060010180549050955060608667ffffffffffffffff811180156112e557600080fd5b506040519080825280602002602001820160405280156113145781602001602082028036833780820191505090505b50905060608767ffffffffffffffff8111801561133057600080fd5b5060405190808252806020026020018201604052801561135f5781602001602082028036833780820191505090505b50905060608867ffffffffffffffff8111801561137b57600080fd5b506040519080825280602002602001820160405280156113aa5781602001602082028036833780820191505090505b50905060608967ffffffffffffffff811180156113c657600080fd5b506040519080825280602002602001820160405280156113f55781602001602082028036833780820191505090505b50905060608a67ffffffffffffffff8111801561141157600080fd5b506040519080825280602002602001820160405280156114405781602001602082028036833780820191505090505b50905060005b8b811015611604576000600c60008f73ffffffffffffffffffffffffffffffffffffffff1673ffffffffffffffffffffffffffffffffffffffff168152602001908152602001600020600101828154811061149d57fe5b90600052602060002001549050600b600082815260200190815260200160002060000160009054906101000a900473ffffffffffffffffffffffffffffffffffffffff168783815181106114ed57fe5b602002602001019073ffffffffffffffffffffffffffffffffffffffff16908173ffffffffffffffffffffffffffffffffffffffff1681525050600b60008281526020019081526020016000206001015486838151811061154a57fe5b602002602001018181525050600b600082815260200190815260200160002060020160009054906101000a900460ff1685838151811061158657fe5b602002602001019015159081151581525050600b6000828152602001908152602001600020600301548483815181106115bb57fe5b602002602001018181525050600b6000828152602001908152602001600020600401548383815181106115ea57fe5b602002602001018181525050508080600101915050611446565b50849950839850829750819650809550505050505091939550919395565b60038054600181600116156101000203166002900480601f0160208091040260200160405190810160405280929190818152602001828054600181600116156101000203166002900480156116b85780601f1061168d576101008083540402835291602001916116b8565b820191906000526020600020905b81548152906001019060200180831161169b57829003601f168201915b505050505081565b600460019054906101000a900460ff1681565b6000600460009054906101000a900460ff16905090565b60028054600181600116156101000203166002900480601f0160208091040260200160405190810160405280929190818152602001828054600181600116156101000203166002900480156117805780601f1061175557610100808354040283529160200191611780565b820191906000526020600020905b81548152906001019060200180831161176357829003601f168201915b505050505081565b600e602052816000526040600020602052806000526040600020600091509150505481565b6117b56119b8565b73ffffffffffffffffffffffffffffffffffffffff1660008054906101000a900473ffffffffffffffffffffffffffffffffffffffff1673ffffffffffffffffffffffffffffffffffffffff1614611875576040517f08c379a00000000000000000000000000000000000000000000000000000000081526004018080602001828103825260208152602001807f4f776e61626c653a2063616c6c6572206973206e6f7420746865206f776e657281525060200191505060405180910390fd5b600073ffffffffffffffffffffffffffffffffffffffff168173ffffffffffffffffffffffffffffffffffffffff1614156118fb576040517f08c379a00000000000000000000000000000000000000000000000000000000081526004018080602001828103825260268152602001806119c16026913960400191505060405180910390fd5b8073ffffffffffffffffffffffffffffffffffffffff1660008054906101000a900473ffffffffffffffffffffffffffffffffffffffff1673ffffffffffffffffffffffffffffffffffffffff167f8be0079c531659141344cd1fd0a4f28419497f9722a3daafe3b4186f6b6457e060405160405180910390a3806000806101000a81548173ffffffffffffffffffffffffffffffffffffffff021916908373ffffffffffffffffffffffffffffffffffffffff16021790555050565b60003390509056fe4f776e61626c653a206e6577206f776e657220697320746865207a65726f2061646472657373a264697066735822122034c8d335bb63aa038326d931511493b0033a2d03a076233a9f8203cdd2da319664736f6c634300060c0033",
  "linkReferences": {},
  "deployedLinkReferences": {}
}