{
  "_format": "hh-sol-artifact-1",
  "contractName": "KanaShop",
  "sourceName": "contracts/KanaShop.sol",
  "abi": [
    {
      "inputs": [
        {
          "internalType": "address",
          "name": "_kToken",
          "type": "address"
        }
      ],
      "stateMutability": "nonpayable",
      "type": "constructor"
    },
    {
      "anonymous": false,
      "inputs": [
        {
          "indexed": true,
          "internalType": "address",
          "name": "src",
          "type": "address"
        },
        {
          "indexed": true,
          "internalType": "address",
          "name": "guy",
          "type": "address"
        },
        {
          "indexed": false,
          "internalType": "uint256",
          "name": "wad",
          "type": "uint256"
        }
      ],
      "name": "Approval",
      "type": "event"
    },
    {
      "anonymous": false,
      "inputs": [
        {
          "indexed": true,
          "internalType": "address",
          "name": "dst",
          "type": "address"
        },
        {
          "indexed": false,
          "internalType": "uint256",
          "name": "wad",
          "type": "uint256"
        }
      ],
      "name": "EventBuyKana",
      "type": "event"
    },
    {
      "anonymous": false,
      "inputs": [
        {
          "indexed": true,
          "internalType": "address",
          "name": "owner",
          "type": "address"
        },
        {
          "indexed": false,
          "internalType": "uint256",
          "name": "amount",
          "type": "uint256"
        }
      ],
      "name": "EventOwnerWithdraw",
      "type": "event"
    },
    {
      "anonymous": false,
      "inputs": [
        {
          "indexed": true,
          "internalType": "address",
          "name": "addr",
          "type": "address"
        },
        {
          "indexed": false,
          "internalType": "uint256",
          "name": "amountKana",
          "type": "uint256"
        }
      ],
      "name": "EventRelease",
      "type": "event"
    },
    {
      "anonymous": false,
      "inputs": [
        {
          "indexed": false,
          "internalType": "uint256",
          "name": "amountKana",
          "type": "uint256"
        },
        {
          "indexed": false,
          "internalType": "uint256",
          "name": "amountEth",
          "type": "uint256"
        }
      ],
      "name": "EventSetRawPrice",
      "type": "event"
    },
    {
      "anonymous": false,
      "inputs": [
        {
          "indexed": true,
          "internalType": "address",
          "name": "previousOwner",
          "type": "address"
        },
        {
          "indexed": true,
          "internalType": "address",
          "name": "newOwner",
          "type": "address"
        }
      ],
      "name": "OwnershipTransferred",
      "type": "event"
    },
    {
      "stateMutability": "payable",
      "type": "fallback"
    },
    {
      "inputs": [],
      "name": "_decimalsETH",
      "outputs": [
        {
          "internalType": "uint8",
          "name": "",
          "type": "uint8"
        }
      ],
      "stateMutability": "view",
      "type": "function"
    },
    {
      "inputs": [],
      "name": "_decimalsKana",
      "outputs": [
        {
          "internalType": "uint8",
          "name": "",
          "type": "uint8"
        }
      ],
      "stateMutability": "view",
      "type": "function"
    },
    {
      "inputs": [],
      "name": "_name",
      "outputs": [
        {
          "internalType": "string",
          "name": "",
          "type": "string"
        }
      ],
      "stateMutability": "view",
      "type": "function"
    },
    {
      "inputs": [],
      "name": "_symbol",
      "outputs": [
        {
          "internalType": "string",
          "name": "",
          "type": "string"
        }
      ],
      "stateMutability": "view",
      "type": "function"
    },
    {
      "inputs": [
        {
          "internalType": "address",
          "name": "",
          "type": "address"
        },
        {
          "internalType": "address",
          "name": "",
          "type": "address"
        }
      ],
      "name": "allowance",
      "outputs": [
        {
          "internalType": "uint256",
          "name": "",
          "type": "uint256"
        }
      ],
      "stateMutability": "view",
      "type": "function"
    },
    {
      "inputs": [
        {
          "internalType": "address",
          "name": "guy",
          "type": "address"
        },
        {
          "internalType": "uint256",
          "name": "wad",
          "type": "uint256"
        }
      ],
      "name": "approve",
      "outputs": [
        {
          "internalType": "bool",
          "name": "",
          "type": "bool"
        }
      ],
      "stateMutability": "nonpayable",
      "type": "function"
    },
    {
      "inputs": [
        {
          "internalType": "address",
          "name": "",
          "type": "address"
        }
      ],
      "name": "balanceOf",
      "outputs": [
        {
          "internalType": "uint256",
          "name": "",
          "type": "uint256"
        }
      ],
      "stateMutability": "view",
      "type": "function"
    },
    {
      "inputs": [],
      "name": "buyKana",
      "outputs": [],
      "stateMutability": "payable",
      "type": "function"
    },
    {
      "inputs": [],
      "name": "decimalsETH",
      "outputs": [
        {
          "internalType": "uint8",
          "name": "",
          "type": "uint8"
        }
      ],
      "stateMutability": "view",
      "type": "function"
    },
    {
      "inputs": [],
      "name": "decimalsKana",
      "outputs": [
        {
          "internalType": "uint8",
          "name": "",
          "type": "uint8"
        }
      ],
      "stateMutability": "view",
      "type": "function"
    },
    {
      "inputs": [
        {
          "internalType": "address",
          "name": "addrUser",
          "type": "address"
        }
      ],
      "name": "getOrdersByAddress",
      "outputs": [
        {
          "internalType": "uint256",
          "name": "totalOrders",
          "type": "uint256"
        },
        {
          "internalType": "address[]",
          "name": "addrUsers",
          "type": "address[]"
        },
        {
          "internalType": "uint256[]",
          "name": "amounts",
          "type": "uint256[]"
        },
        {
          "internalType": "bool[]",
          "name": "releases",
          "type": "bool[]"
        },
        {
          "internalType": "uint256[]",
          "name": "createTimes",
          "type": "uint256[]"
        },
        {
          "internalType": "uint256[]",
          "name": "updateTimes",
          "type": "uint256[]"
        }
      ],
      "stateMutability": "view",
      "type": "function"
    },
    {
      "inputs": [],
      "name": "getRate",
      "outputs": [
        {
          "internalType": "uint256",
          "name": "",
          "type": "uint256"
        }
      ],
      "stateMutability": "view",
      "type": "function"
    },
    {
      "inputs": [],
      "name": "getRawPrice",
      "outputs": [
        {
          "internalType": "uint256",
          "name": "amountKana",
          "type": "uint256"
        },
        {
          "internalType": "uint256",
          "name": "amountEth",
          "type": "uint256"
        }
      ],
      "stateMutability": "view",
      "type": "function"
    },
    {
      "inputs": [],
      "name": "owner",
      "outputs": [
        {
          "internalType": "address",
          "name": "",
          "type": "address"
        }
      ],
      "stateMutability": "view",
      "type": "function"
    },
    {
      "inputs": [
        {
          "internalType": "uint256",
          "name": "wad",
          "type": "uint256"
        }
      ],
      "name": "ownerWithdraw",
      "outputs": [],
      "stateMutability": "nonpayable",
      "type": "function"
    },
    {
      "inputs": [],
      "name": "release",
      "outputs": [],
      "stateMutability": "nonpayable",
      "type": "function"
    },
    {
      "inputs": [],
      "name": "renounceOwnership",
      "outputs": [],
      "stateMutability": "nonpayable",
      "type": "function"
    },
    {
      "inputs": [
        {
          "internalType": "uint256",
          "name": "amountKana",
          "type": "uint256"
        },
        {
          "internalType": "uint256",
          "name": "amountEth",
          "type": "uint256"
        }
      ],
      "name": "setRawPrice",
      "outputs": [],
      "stateMutability": "nonpayable",
      "type": "function"
    },
    {
      "inputs": [],
      "name": "totalSellLimit",
      "outputs": [
        {
          "internalType": "uint256",
          "name": "",
          "type": "uint256"
        }
      ],
      "stateMutability": "view",
      "type": "function"
    },
    {
      "inputs": [],
      "name": "totalSold",
      "outputs": [
        {
          "internalType": "uint256",
          "name": "",
          "type": "uint256"
        }
      ],
      "stateMutability": "view",
      "type": "function"
    },
    {
      "inputs": [],
      "name": "totalSupply",
      "outputs": [
        {
          "internalType": "uint256",
          "name": "",
          "type": "uint256"
        }
      ],
      "stateMutability": "view",
      "type": "function"
    },
    {
      "inputs": [
        {
          "internalType": "address",
          "name": "newOwner",
          "type": "address"
        }
      ],
      "name": "transferOwnership",
      "outputs": [],
      "stateMutability": "nonpayable",
      "type": "function"
    },
    {
      "stateMutability": "payable",
      "type": "receive"
    }
  ],
  "bytecode": "0x60806040526040518060400160405280600e81526020017f4b616e61546f6b656e2073686f70000000000000000000000000000000000000815250600290805190602001906200005192919062000277565b506040518060400160405280600881526020017f4b616e6153686f70000000000000000000000000000000000000000000000000815250600390805190602001906200009f92919062000277565b506008600460006101000a81548160ff021916908360ff1602179055506012600460016101000a81548160ff021916908360ff160217905550600460019054906101000a900460ff1660ff16600a0a60c8026007553480156200010157600080fd5b50604051620023be380380620023be833981810160405260208110156200012757600080fd5b810190808051906020019092919050505060006200014a6200026f60201b60201c565b9050806000806101000a81548173ffffffffffffffffffffffffffffffffffffffff021916908373ffffffffffffffffffffffffffffffffffffffff1602179055508073ffffffffffffffffffffffffffffffffffffffff16600073ffffffffffffffffffffffffffffffffffffffff167f8be0079c531659141344cd1fd0a4f28419497f9722a3daafe3b4186f6b6457e060405160405180910390a35080600160006101000a81548173ffffffffffffffffffffffffffffffffffffffff021916908373ffffffffffffffffffffffffffffffffffffffff16021790555060006008819055507fffffffffffffffffffffffffffffffffffffffffffffffffffffffffffffffff60098190555060006005819055506000600681905550506200031d565b600033905090565b828054600181600116156101000203166002900490600052602060002090601f016020900481019282601f10620002ba57805160ff1916838001178555620002eb565b82800160010185558215620002eb579182015b82811115620002ea578251825591602001919060010190620002cd565b5b509050620002fa9190620002fe565b5090565b5b8082111562000319576000816000905550600101620002ff565b5090565b612091806200032d6000396000f3fe6080604052600436106101395760003560e01c8063715018a6116100ab578063b09f12661161006f578063b09f126614610628578063b3fa3a6f146106b8578063b4a8ea7f146106e6578063d28d885214610714578063dd62ed3e146107a4578063f2fde38b1461082957610148565b8063715018a6146103c157806386d1a69f146103d85780638da5cb5b146103ef5780639106d7ba1461043057806399eeda021461045b57610148565b806333f707d1116100fd57806333f707d1146102585780633abcab2514610293578063679aefce146102c15780636bd26924146102ec5780636fc5e35b1461033157806370a082311461035c57610148565b8063071f4fb114610152578063084a323714610180578063095ea7b3146101b257806318160ddd14610223578063338e2aac1461024e57610148565b366101485761014661087a565b005b61015061087a565b005b34801561015e57600080fd5b50610167610d14565b604051808260ff16815260200191505060405180910390f35b34801561018c57600080fd5b50610195610d27565b604051808381526020018281526020019250505060405180910390f35b3480156101be57600080fd5b5061020b600480360360408110156101d557600080fd5b81019080803573ffffffffffffffffffffffffffffffffffffffff16906020019092919080359060200190929190505050610d38565b60405180821515815260200191505060405180910390f35b34801561022f57600080fd5b50610238610e2a565b6040518082815260200191505060405180910390f35b61025661087a565b005b34801561026457600080fd5b506102916004803603602081101561027b57600080fd5b8101908080359060200190929190505050610e32565b005b34801561029f57600080fd5b506102a8611092565b604051808260ff16815260200191505060405180910390f35b3480156102cd57600080fd5b506102d66110a9565b6040518082815260200191505060405180910390f35b3480156102f857600080fd5b5061032f6004803603604081101561030f57600080fd5b8101908080359060200190929190803590602001909291905050506110be565b005b34801561033d57600080fd5b50610346611218565b6040518082815260200191505060405180910390f35b34801561036857600080fd5b506103ab6004803603602081101561037f57600080fd5b81019080803573ffffffffffffffffffffffffffffffffffffffff169060200190929190505050611222565b6040518082815260200191505060405180910390f35b3480156103cd57600080fd5b506103d661123a565b005b3480156103e457600080fd5b506103ed6113c0565b005b3480156103fb57600080fd5b506104046117e6565b604051808273ffffffffffffffffffffffffffffffffffffffff16815260200191505060405180910390f35b34801561043c57600080fd5b5061044561180f565b6040518082815260200191505060405180910390f35b34801561046757600080fd5b506104aa6004803603602081101561047e57600080fd5b81019080803573ffffffffffffffffffffffffffffffffffffffff169060200190929190505050611819565b60405180878152602001806020018060200180602001806020018060200186810386528b818151815260200191508051906020019060200280838360005b838110156105035780820151818401526020810190506104e8565b5050505090500186810385528a818151815260200191508051906020019060200280838360005b8381101561054557808201518184015260208101905061052a565b50505050905001868103845289818151815260200191508051906020019060200280838360005b8381101561058757808201518184015260208101905061056c565b50505050905001868103835288818151815260200191508051906020019060200280838360005b838110156105c95780820151818401526020810190506105ae565b50505050905001868103825287818151815260200191508051906020019060200280838360005b8381101561060b5780820151818401526020810190506105f0565b505050509050019b50505050505050505050505060405180910390f35b34801561063457600080fd5b5061063d611bc1565b6040518080602001828103825283818151815260200191508051906020019080838360005b8381101561067d578082015181840152602081019050610662565b50505050905090810190601f1680156106aa5780820380516001836020036101000a031916815260200191505b509250505060405180910390f35b3480156106c457600080fd5b506106cd611c5f565b604051808260ff16815260200191505060405180910390f35b3480156106f257600080fd5b506106fb611c72565b604051808260ff16815260200191505060405180910390f35b34801561072057600080fd5b50610729611c89565b6040518080602001828103825283818151815260200191508051906020019080838360005b8381101561076957808201518184015260208101905061074e565b50505050905090810190601f1680156107965780820380516001836020036101000a031916815260200191505b509250505060405180910390f35b3480156107b057600080fd5b50610813600480360360408110156107c757600080fd5b81019080803573ffffffffffffffffffffffffffffffffffffffff169060200190929190803573ffffffffffffffffffffffffffffffffffffffff169060200190929190505050611d27565b6040518082815260200191505060405180910390f35b34801561083557600080fd5b506108786004803603602081101561084c57600080fd5b81019080803573ffffffffffffffffffffffffffffffffffffffff169060200190929190505050611d4c565b005b6000600460019054906101000a900460ff1660ff16600a0a60010290506000600460019054906101000a900460ff1660ff16600a0a600a02905060004290508234101580156108c95750813411155b61093b576040517f08c379a000000000000000000000000000000000000000000000000000000000815260040180806020018281038252600c8152602001807f616d6f756e74206c696d6974000000000000000000000000000000000000000081525060200191505060405180910390fd5b8134600d60003373ffffffffffffffffffffffffffffffffffffffff1673ffffffffffffffffffffffffffffffffffffffff168152602001908152602001600020540111156109f2576040517f08c379a00000000000000000000000000000000000000000000000000000000081526004018080602001828103825260198152602001807f6164647265737320746f74616c206c696d6974206572726f720000000000000081525060200191505060405180910390fd5b60075434600854011115610a6e576040517f08c379a00000000000000000000000000000000000000000000000000000000081526004018080602001828103825260108152602001807f746f74616c2073656c6c206c696d69740000000000000000000000000000000081525060200191505060405180910390fd5b600a81908060018154018082558091505060019003906000526020600020016000909190919091505560006001600a8054905003905033600b600083815260200190815260200160002060000160006101000a81548173ffffffffffffffffffffffffffffffffffffffff021916908373ffffffffffffffffffffffffffffffffffffffff16021790555034600b6000838152602001908152602001600020600101819055506000600b600083815260200190815260200160002060020160006101000a81548160ff02191690831515021790555081600b60008381526020019081526020016000206003018190555081600b60008381526020019081526020016000206004018190555033600c60003373ffffffffffffffffffffffffffffffffffffffff1673ffffffffffffffffffffffffffffffffffffffff16815260200190815260200160002060000160006101000a81548173ffffffffffffffffffffffffffffffffffffffff021916908373ffffffffffffffffffffffffffffffffffffffff160217905550600c60003373ffffffffffffffffffffffffffffffffffffffff1673ffffffffffffffffffffffffffffffffffffffff16815260200190815260200160002060010181908060018154018082558091505060019003906000526020600020016000909190919091505534600d60003373ffffffffffffffffffffffffffffffffffffffff1673ffffffffffffffffffffffffffffffffffffffff16815260200190815260200160002060008282540192505081905550346008600082825401925050819055503373ffffffffffffffffffffffffffffffffffffffff167f182f79e177118dba88773ce5fabd147422d7a39e1baa59838cb8bcb33babda40346040518082815260200191505060405180910390a250505050565b600460009054906101000a900460ff1681565b600080600554915060065490509091565b600081600e60003373ffffffffffffffffffffffffffffffffffffffff1673ffffffffffffffffffffffffffffffffffffffff16815260200190815260200160002060008573ffffffffffffffffffffffffffffffffffffffff1673ffffffffffffffffffffffffffffffffffffffff168152602001908152602001600020819055508273ffffffffffffffffffffffffffffffffffffffff163373ffffffffffffffffffffffffffffffffffffffff167f8c5be1e5ebec7d5bd14f71427d1e84f3dd0314c0f7b2291e5b200ac8c7c3b925846040518082815260200191505060405180910390a36001905092915050565b600047905090565b610e3a611f57565b73ffffffffffffffffffffffffffffffffffffffff1660008054906101000a900473ffffffffffffffffffffffffffffffffffffffff1673ffffffffffffffffffffffffffffffffffffffff1614610efa576040517f08c379a00000000000000000000000000000000000000000000000000000000081526004018080602001828103825260208152602001807f4f776e61626c653a2063616c6c6572206973206e6f7420746865206f776e657281525060200191505060405180910390fd5b3073ffffffffffffffffffffffffffffffffffffffff16638da5cb5b6040518163ffffffff1660e01b815260040160206040518083038186803b158015610f4057600080fd5b505afa158015610f54573d6000803e3d6000fd5b505050506040513d6020811015610f6a57600080fd5b810190808051906020019092919050505073ffffffffffffffffffffffffffffffffffffffff166108fc829081150290604051600060405180830381858888f19350505050158015610fc0573d6000803e3d6000fd5b503073ffffffffffffffffffffffffffffffffffffffff16638da5cb5b6040518163ffffffff1660e01b815260040160206040518083038186803b15801561100757600080fd5b505afa15801561101b573d6000803e3d6000fd5b505050506040513d602081101561103157600080fd5b810190808051906020019092919050505073ffffffffffffffffffffffffffffffffffffffff167f4ad3fa841b4f5843839c0cf45813b8f0fd06ff727b8208ab010d261467031566826040518082815260200191505060405180910390a250565b6000600460019054906101000a900460ff16905090565b60006110b9600554600654611f5f565b905090565b6110c6611f57565b73ffffffffffffffffffffffffffffffffffffffff1660008054906101000a900473ffffffffffffffffffffffffffffffffffffffff1673ffffffffffffffffffffffffffffffffffffffff1614611186576040517f08c379a00000000000000000000000000000000000000000000000000000000081526004018080602001828103825260208152602001807f4f776e61626c653a2063616c6c6572206973206e6f7420746865206f776e657281525060200191505060405180910390fd5b60016111928383611f5f565b1015611206576040517f08c379a00000000000000000000000000000000000000000000000000000000081526004018080602001828103825260138152602001807f6b616e6120707269636520746f6f20686967680000000000000000000000000081525060200191505060405180910390fd5b81600581905550806006819055505050565b6000600754905090565b600d6020528060005260406000206000915090505481565b611242611f57565b73ffffffffffffffffffffffffffffffffffffffff1660008054906101000a900473ffffffffffffffffffffffffffffffffffffffff1673ffffffffffffffffffffffffffffffffffffffff1614611302576040517f08c379a00000000000000000000000000000000000000000000000000000000081526004018080602001828103825260208152602001807f4f776e61626c653a2063616c6c6572206973206e6f7420746865206f776e657281525060200191505060405180910390fd5b600073ffffffffffffffffffffffffffffffffffffffff1660008054906101000a900473ffffffffffffffffffffffffffffffffffffffff1673ffffffffffffffffffffffffffffffffffffffff167f8be0079c531659141344cd1fd0a4f28419497f9722a3daafe3b4186f6b6457e060405160405180910390a360008060006101000a81548173ffffffffffffffffffffffffffffffffffffffff021916908373ffffffffffffffffffffffffffffffffffffffff160217905550565b6113c8611f57565b73ffffffffffffffffffffffffffffffffffffffff1660008054906101000a900473ffffffffffffffffffffffffffffffffffffffff1673ffffffffffffffffffffffffffffffffffffffff1614611488576040517f08c379a00000000000000000000000000000000000000000000000000000000081526004018080602001828103825260208152602001807f4f776e61626c653a2063616c6c6572206973206e6f7420746865206f776e657281525060200191505060405180910390fd5b60006005541415611501576040517f08c379a00000000000000000000000000000000000000000000000000000000081526004018080602001828103825260198152602001807f6e65656420746f20736574207072696365206f66206b616e610000000000000081525060200191505060405180910390fd5b6000600654141561157a576040517f08c379a00000000000000000000000000000000000000000000000000000000081526004018080602001828103825260188152602001807f6e65656420746f20736574207072696365206f6620657468000000000000000081525060200191505060405180910390fd5b6000600160095401905060008190505b600a805490508110156117db57600b600082815260200190815260200160002060020160009054906101000a900460ff1615156001151514156115cc576117ce565b6000600654600554600b60008581526020019081526020016000206001015402816115f357fe5b049050600160009054906101000a900473ffffffffffffffffffffffffffffffffffffffff1673ffffffffffffffffffffffffffffffffffffffff1663a9059cbb600b600085815260200190815260200160002060000160009054906101000a900473ffffffffffffffffffffffffffffffffffffffff16836040518363ffffffff1660e01b8152600401808373ffffffffffffffffffffffffffffffffffffffff16815260200182815260200192505050602060405180830381600087803b1580156116bf57600080fd5b505af11580156116d3573d6000803e3d6000fd5b505050506040513d60208110156116e957600080fd5b8101908080519060200190929190505050506001600b600084815260200190815260200160002060020160006101000a81548160ff02191690831515021790555042600b600084815260200190815260200160002060040181905550819250600b600083815260200190815260200160002060000160009054906101000a900473ffffffffffffffffffffffffffffffffffffffff1673ffffffffffffffffffffffffffffffffffffffff167fd7c43f1f3562ee317392c7a54a3898cababfcfc03cc65b1c220ef345067ca493826040518082815260200191505060405180910390a2505b808060010191505061158a565b508060098190555050565b60008060009054906101000a900473ffffffffffffffffffffffffffffffffffffffff16905090565b6000600854905090565b60006060806060806060600c60008873ffffffffffffffffffffffffffffffffffffffff1673ffffffffffffffffffffffffffffffffffffffff16815260200190815260200160002060010180549050955060608667ffffffffffffffff8111801561188457600080fd5b506040519080825280602002602001820160405280156118b35781602001602082028036833780820191505090505b50905060608767ffffffffffffffff811180156118cf57600080fd5b506040519080825280602002602001820160405280156118fe5781602001602082028036833780820191505090505b50905060608867ffffffffffffffff8111801561191a57600080fd5b506040519080825280602002602001820160405280156119495781602001602082028036833780820191505090505b50905060608967ffffffffffffffff8111801561196557600080fd5b506040519080825280602002602001820160405280156119945781602001602082028036833780820191505090505b50905060608a67ffffffffffffffff811180156119b057600080fd5b506040519080825280602002602001820160405280156119df5781602001602082028036833780820191505090505b50905060005b8b811015611ba3576000600c60008f73ffffffffffffffffffffffffffffffffffffffff1673ffffffffffffffffffffffffffffffffffffffff1681526020019081526020016000206001018281548110611a3c57fe5b90600052602060002001549050600b600082815260200190815260200160002060000160009054906101000a900473ffffffffffffffffffffffffffffffffffffffff16878381518110611a8c57fe5b602002602001019073ffffffffffffffffffffffffffffffffffffffff16908173ffffffffffffffffffffffffffffffffffffffff1681525050600b600082815260200190815260200160002060010154868381518110611ae957fe5b602002602001018181525050600b600082815260200190815260200160002060020160009054906101000a900460ff16858381518110611b2557fe5b602002602001019015159081151581525050600b600082815260200190815260200160002060030154848381518110611b5a57fe5b602002602001018181525050600b600082815260200190815260200160002060040154838381518110611b8957fe5b6020026020010181815250505080806001019150506119e5565b50849950839850829750819650809550505050505091939550919395565b60038054600181600116156101000203166002900480601f016020809104026020016040519081016040528092919081815260200182805460018160011615610100020316600290048015611c575780601f10611c2c57610100808354040283529160200191611c57565b820191906000526020600020905b815481529060010190602001808311611c3a57829003601f168201915b505050505081565b600460019054906101000a900460ff1681565b6000600460009054906101000a900460ff16905090565b60028054600181600116156101000203166002900480601f016020809104026020016040519081016040528092919081815260200182805460018160011615610100020316600290048015611d1f5780601f10611cf457610100808354040283529160200191611d1f565b820191906000526020600020905b815481529060010190602001808311611d0257829003601f168201915b505050505081565b600e602052816000526040600020602052806000526040600020600091509150505481565b611d54611f57565b73ffffffffffffffffffffffffffffffffffffffff1660008054906101000a900473ffffffffffffffffffffffffffffffffffffffff1673ffffffffffffffffffffffffffffffffffffffff1614611e14576040517f08c379a00000000000000000000000000000000000000000000000000000000081526004018080602001828103825260208152602001807f4f776e61626c653a2063616c6c6572206973206e6f7420746865206f776e657281525060200191505060405180910390fd5b600073ffffffffffffffffffffffffffffffffffffffff168173ffffffffffffffffffffffffffffffffffffffff161415611e9a576040517f08c379a00000000000000000000000000000000000000000000000000000000081526004018080602001828103825260268152602001806120366026913960400191505060405180910390fd5b8073ffffffffffffffffffffffffffffffffffffffff1660008054906101000a900473ffffffffffffffffffffffffffffffffffffffff1673ffffffffffffffffffffffffffffffffffffffff167f8be0079c531659141344cd1fd0a4f28419497f9722a3daafe3b4186f6b6457e060405160405180910390a3806000806101000a81548173ffffffffffffffffffffffffffffffffffffffff021916908373ffffffffffffffffffffffffffffffffffffffff16021790555050565b600033905090565b6000600460009054906101000a900460ff1660ff16600460019054906101000a900460ff1660ff161015611ffb576040517f08c379a000000000000000000000000000000000000000000000000000000000815260040180806020018281038252600d8152602001807f646563696d616c206572726f720000000000000000000000000000000000000081525060200191505060405180910390fd5b81600460009054906101000a900460ff16600460019054906101000a900460ff160360ff16600a0a84028161202c57fe5b0490509291505056fe4f776e61626c653a206e6577206f776e657220697320746865207a65726f2061646472657373a26469706673582212203f06363d28224b36336e8fc22dc6b87c7b7f992d538490ee318c9fc6c2164f8364736f6c634300060c0033",
  "linkReferences": {},
  "deployedLinkReferences": {}
}